{
  "_format": "hh-sol-artifact-1",
  "contractName": "KrishiSetu",
  "sourceName": "contracts/AgriChain.sol",
  "abi": [
    {
      "anonymous": false,
      "inputs": [
        {
          "indexed": true,
          "internalType": "string",
          "name": "productId",
          "type": "string"
        },
        {
          "indexed": true,
          "internalType": "address",
          "name": "farmer",
          "type": "address"
        },
        {
          "indexed": false,
          "internalType": "string",
          "name": "name",
          "type": "string"
        },
        {
          "indexed": false,
          "internalType": "uint256",
          "name": "quantity",
          "type": "uint256"
        },
        {
          "indexed": false,
          "internalType": "uint256",
          "name": "basePrice",
          "type": "uint256"
        },
        {
          "indexed": false,
          "internalType": "string",
          "name": "quality",
          "type": "string"
        },
        {
          "indexed": false,
          "internalType": "string",
          "name": "location",
          "type": "string"
        }
      ],
      "name": "ProductRegistered",
      "type": "event"
    },
    {
      "anonymous": false,
      "inputs": [
        {
          "indexed": true,
          "internalType": "string",
          "name": "productId",
          "type": "string"
        },
        {
          "indexed": true,
          "internalType": "address",
          "name": "actor",
          "type": "address"
        },
        {
          "indexed": false,
          "internalType": "string",
          "name": "action",
          "type": "string"
        },
        {
          "indexed": false,
          "internalType": "uint256",
          "name": "newPrice",
          "type": "uint256"
        },
        {
          "indexed": false,
          "internalType": "string",
          "name": "status",
          "type": "string"
        }
      ],
      "name": "ProductUpdated",
      "type": "event"
    },
    {
      "anonymous": false,
      "inputs": [
        {
          "indexed": true,
          "internalType": "string",
          "name": "productId",
          "type": "string"
        },
        {
          "indexed": true,
          "internalType": "address",
          "name": "from",
          "type": "address"
        },
        {
          "indexed": true,
          "internalType": "address",
          "name": "to",
          "type": "address"
        },
        {
          "indexed": false,
          "internalType": "string",
          "name": "step",
          "type": "string"
        },
        {
          "indexed": false,
          "internalType": "uint256",
          "name": "timestamp",
          "type": "uint256"
        }
      ],
      "name": "SupplyChainStep",
      "type": "event"
    },
    {
      "inputs": [
        {
          "internalType": "uint256",
          "name": "",
          "type": "uint256"
        }
      ],
      "name": "allProductIds",
      "outputs": [
        {
          "internalType": "string",
          "name": "",
          "type": "string"
        }
      ],
      "stateMutability": "view",
      "type": "function"
    },
    {
      "inputs": [
        {
          "internalType": "address",
          "name": "",
          "type": "address"
        },
        {
          "internalType": "uint256",
          "name": "",
          "type": "uint256"
        }
      ],
      "name": "distributorProducts",
      "outputs": [
        {
          "internalType": "string",
          "name": "",
          "type": "string"
        }
      ],
      "stateMutability": "view",
      "type": "function"
    },
    {
      "inputs": [
        {
          "internalType": "address",
          "name": "",
          "type": "address"
        },
        {
          "internalType": "uint256",
          "name": "",
          "type": "uint256"
        }
      ],
      "name": "farmerProducts",
      "outputs": [
        {
          "internalType": "string",
          "name": "",
          "type": "string"
        }
      ],
      "stateMutability": "view",
      "type": "function"
    },
    {
      "inputs": [],
      "name": "getAllProductIds",
      "outputs": [
        {
          "internalType": "string[]",
          "name": "",
          "type": "string[]"
        }
      ],
      "stateMutability": "view",
      "type": "function"
    },
    {
      "inputs": [],
      "name": "getContractStats",
      "outputs": [
        {
          "internalType": "uint256",
          "name": "_totalProducts",
          "type": "uint256"
        },
        {
          "internalType": "uint256",
          "name": "_totalTransactions",
          "type": "uint256"
        },
        {
          "internalType": "uint256",
          "name": "_totalValue",
          "type": "uint256"
        },
        {
          "internalType": "uint256",
          "name": "_activeProducts",
          "type": "uint256"
        }
      ],
      "stateMutability": "view",
      "type": "function"
    },
    {
      "inputs": [
        {
          "internalType": "string",
          "name": "_productId",
          "type": "string"
        }
      ],
      "name": "getProduct",
      "outputs": [
        {
          "components": [
            {
              "internalType": "string",
              "name": "id",
              "type": "string"
            },
            {
              "internalType": "string",
              "name": "name",
              "type": "string"
            },
            {
              "internalType": "uint256",
              "name": "quantity",
              "type": "uint256"
            },
            {
              "internalType": "uint256",
              "name": "basePrice",
              "type": "uint256"
            },
            {
              "internalType": "uint256",
              "name": "currentPrice",
              "type": "uint256"
            },
            {
              "internalType": "string",
              "name": "harvestDate",
              "type": "string"
            },
            {
              "internalType": "string",
              "name": "quality",
              "type": "string"
            },
            {
              "internalType": "string",
              "name": "status",
              "type": "string"
            },
            {
              "internalType": "address",
              "name": "farmer",
              "type": "address"
            },
            {
              "internalType": "address",
              "name": "distributor",
              "type": "address"
            },
            {
              "internalType": "address",
              "name": "retailer",
              "type": "address"
            },
            {
              "internalType": "string",
              "name": "location",
              "type": "string"
            },
            {
              "internalType": "uint256",
              "name": "timestamp",
              "type": "uint256"
            },
            {
              "internalType": "bool",
              "name": "exists",
              "type": "bool"
            }
          ],
          "internalType": "struct KrishiSetu.Product",
          "name": "",
          "type": "tuple"
        }
      ],
      "stateMutability": "view",
      "type": "function"
    },
    {
      "inputs": [
        {
          "internalType": "string",
          "name": "_productId",
          "type": "string"
        }
      ],
      "name": "getProductHistory",
      "outputs": [
        {
          "components": [
            {
              "internalType": "string",
              "name": "productId",
              "type": "string"
            },
            {
              "internalType": "address",
              "name": "actor",
              "type": "address"
            },
            {
              "internalType": "string",
              "name": "action",
              "type": "string"
            },
            {
              "internalType": "uint256",
              "name": "newPrice",
              "type": "uint256"
            },
            {
              "internalType": "string",
              "name": "details",
              "type": "string"
            },
            {
              "internalType": "uint256",
              "name": "timestamp",
              "type": "uint256"
            },
            {
              "internalType": "uint256",
              "name": "blockNumber",
              "type": "uint256"
            }
          ],
          "internalType": "struct KrishiSetu.Transaction[]",
          "name": "",
          "type": "tuple[]"
        }
      ],
      "stateMutability": "view",
      "type": "function"
    },
    {
      "inputs": [
        {
          "internalType": "address",
          "name": "_distributor",
          "type": "address"
        }
      ],
      "name": "getProductsByDistributor",
      "outputs": [
        {
          "internalType": "string[]",
          "name": "",
          "type": "string[]"
        }
      ],
      "stateMutability": "view",
      "type": "function"
    },
    {
      "inputs": [
        {
          "internalType": "address",
          "name": "_farmer",
          "type": "address"
        }
      ],
      "name": "getProductsByFarmer",
      "outputs": [
        {
          "internalType": "string[]",
          "name": "",
          "type": "string[]"
        }
      ],
      "stateMutability": "view",
      "type": "function"
    },
    {
      "inputs": [
        {
          "internalType": "address",
          "name": "_retailer",
          "type": "address"
        }
      ],
      "name": "getProductsByRetailer",
      "outputs": [
        {
          "internalType": "string[]",
          "name": "",
          "type": "string[]"
        }
      ],
      "stateMutability": "view",
      "type": "function"
    },
    {
      "inputs": [
        {
          "internalType": "string",
          "name": "_productId",
          "type": "string"
        }
      ],
      "name": "markAsDelivered",
      "outputs": [],
      "stateMutability": "nonpayable",
      "type": "function"
    },
    {
      "inputs": [
        {
          "internalType": "string",
          "name": "",
          "type": "string"
        },
        {
          "internalType": "uint256",
          "name": "",
          "type": "uint256"
        }
      ],
      "name": "productHistory",
      "outputs": [
        {
          "internalType": "string",
          "name": "productId",
          "type": "string"
        },
        {
          "internalType": "address",
          "name": "actor",
          "type": "address"
        },
        {
          "internalType": "string",
          "name": "action",
          "type": "string"
        },
        {
          "internalType": "uint256",
          "name": "newPrice",
          "type": "uint256"
        },
        {
          "internalType": "string",
          "name": "details",
          "type": "string"
        },
        {
          "internalType": "uint256",
          "name": "timestamp",
          "type": "uint256"
        },
        {
          "internalType": "uint256",
          "name": "blockNumber",
          "type": "uint256"
        }
      ],
      "stateMutability": "view",
      "type": "function"
    },
    {
      "inputs": [
        {
          "internalType": "string",
          "name": "",
          "type": "string"
        }
      ],
      "name": "products",
      "outputs": [
        {
          "internalType": "string",
          "name": "id",
          "type": "string"
        },
        {
          "internalType": "string",
          "name": "name",
          "type": "string"
        },
        {
          "internalType": "uint256",
          "name": "quantity",
          "type": "uint256"
        },
        {
          "internalType": "uint256",
          "name": "basePrice",
          "type": "uint256"
        },
        {
          "internalType": "uint256",
          "name": "currentPrice",
          "type": "uint256"
        },
        {
          "internalType": "string",
          "name": "harvestDate",
          "type": "string"
        },
        {
          "internalType": "string",
          "name": "quality",
          "type": "string"
        },
        {
          "internalType": "string",
          "name": "status",
          "type": "string"
        },
        {
          "internalType": "address",
          "name": "farmer",
          "type": "address"
        },
        {
          "internalType": "address",
          "name": "distributor",
          "type": "address"
        },
        {
          "internalType": "address",
          "name": "retailer",
          "type": "address"
        },
        {
          "internalType": "string",
          "name": "location",
          "type": "string"
        },
        {
          "internalType": "uint256",
          "name": "timestamp",
          "type": "uint256"
        },
        {
          "internalType": "bool",
          "name": "exists",
          "type": "bool"
        }
      ],
      "stateMutability": "view",
      "type": "function"
    },
    {
      "inputs": [
        {
          "internalType": "string",
          "name": "_id",
          "type": "string"
        },
        {
          "internalType": "string",
          "name": "_name",
          "type": "string"
        },
        {
          "internalType": "uint256",
          "name": "_quantity",
          "type": "uint256"
        },
        {
          "internalType": "uint256",
          "name": "_basePrice",
          "type": "uint256"
        },
        {
          "internalType": "string",
          "name": "_harvestDate",
          "type": "string"
        },
        {
          "internalType": "string",
          "name": "_quality",
          "type": "string"
        },
        {
          "internalType": "string",
          "name": "_location",
          "type": "string"
        }
      ],
      "name": "registerProduct",
      "outputs": [],
      "stateMutability": "nonpayable",
      "type": "function"
    },
    {
      "inputs": [
        {
          "internalType": "address",
          "name": "",
          "type": "address"
        },
        {
          "internalType": "uint256",
          "name": "",
          "type": "uint256"
        }
      ],
      "name": "retailerProducts",
      "outputs": [
        {
          "internalType": "string",
          "name": "",
          "type": "string"
        }
      ],
      "stateMutability": "view",
      "type": "function"
    },
    {
      "inputs": [],
      "name": "totalProducts",
      "outputs": [
        {
          "internalType": "uint256",
          "name": "",
          "type": "uint256"
        }
      ],
      "stateMutability": "view",
      "type": "function"
    },
    {
      "inputs": [],
      "name": "totalTransactions",
      "outputs": [
        {
          "internalType": "uint256",
          "name": "",
          "type": "uint256"
        }
      ],
      "stateMutability": "view",
      "type": "function"
    },
    {
      "inputs": [
        {
          "internalType": "string",
          "name": "_productId",
          "type": "string"
        },
        {
          "internalType": "uint256",
          "name": "_handlingCost",
          "type": "uint256"
        },
        {
          "internalType": "string",
          "name": "_transportDetails",
          "type": "string"
        }
      ],
      "name": "updateAsDistributor",
      "outputs": [],
      "stateMutability": "nonpayable",
      "type": "function"
    },
    {
      "inputs": [
        {
          "internalType": "string",
          "name": "_productId",
          "type": "string"
        },
        {
          "internalType": "uint256",
          "name": "_retailMargin",
          "type": "uint256"
        },
        {
          "internalType": "string",
          "name": "_storeDetails",
          "type": "string"
        }
      ],
      "name": "updateAsRetailer",
      "outputs": [],
      "stateMutability": "nonpayable",
      "type": "function"
    },
    {
      "inputs": [
        {
          "internalType": "string",
          "name": "_productId",
          "type": "string"
        }
      ],
      "name": "verifyProduct",
      "outputs": [
        {
          "internalType": "bool",
          "name": "verified",
          "type": "bool"
        },
        {
          "internalType": "uint256",
          "name": "totalSteps",
          "type": "uint256"
        },
        {
          "internalType": "address[]",
          "name": "actors",
          "type": "address[]"
        },
        {
          "internalType": "string[]",
          "name": "actions",
          "type": "string[]"
        },
        {
          "internalType": "uint256[]",
          "name": "timestamps",
          "type": "uint256[]"
        }
      ],
      "stateMutability": "view",
      "type": "function"
    }
  ],
  "bytecode": "0x6080806040523461001657612691908161001c8239f35b600080fdfe6080604052600436101561001257600080fd5b60003560e01c80630186a42314611e0a57806301970b1114611d09578063133ce051146119e25780633e8f0bc214611703578063530ba39714611425578063663c01af1461138e57806368111cce146110d257806392efc45314610dec5780639b9d326d14610dce5780639ecd211814610d81578063a160798814610d34578063b9a6003814610d16578063c0d4c18c1461077c578063d4f50453146105a3578063d666914714610512578063dde1bbcf146104e5578063dfe6b5d61461028a578063ec90a7b0146101f9578063f6fa3b92146101685763fece8772146100f857600080fd5b346101635760403660031901126101635761011161226c565b6001600160a01b031660009081526002602052604090208054602435908110156101635761014561014b9161015f936122b9565b906122d1565b60405191829160208352602083019061216f565b0390f35b600080fd5b3461016357602080600319360112610163576001600160a01b0361018a61226c565b166000526003815260406000209081546101a381612610565b926101b16040519485611ff5565b8184526000908152828120838086015b8484106101db576040518281528061015f8185018a612210565b60019182916101e9856120c9565b81520192019201919084906101c1565b3461016357602080600319360112610163576001600160a01b0361021b61226c565b1660005260028152604060002090815461023481612610565b926102426040519485611ff5565b8184526000908152828120838086015b84841061026c576040518281528061015f8185018a612210565b600191829161027a856120c9565b8152019201920191908490610252565b3461016357600036600319011261016357600580546000908190815b8181106102cf576080848460065491600754604051938452602084015260408301526060820152f35b6102d881612282565b50936040518060008754976102ec8961208f565b906001998a811690816000146104ce5750600114610494575b505060008152602092839103019020906103376040519761032589611fbe565b61032e846120c9565b895283016120c9565b8188015260028201549060408801918252600383015460608901526004830154608089019081526103698a85016120c9565b60a08a015261037a600685016120c9565b60c08a015261038b600785016120c9565b9860e08101998a526101a060ff600d60018060a01b039788600882015416610100860152600998808a83015416610120870152600a820154166101408601526103d6600b82016120c9565b610160860152600c81015461018086015201541615159101525191519182810292818404149015171561047e5761043b6811195b1a5d995c995960ba1b927f84d438931365e92021ed104a3ccc6ebb11094926f21ebfcbd81ad9746006c51095612603565b9751818151910120926040519061045182611fda565b8152015203610469575b6104649061249e565b6102a6565b916104766104649161249e565b92905061045b565b634e487b7160e01b600052601160045260246000fd5b909150600052602080600020896000915b8483106104b9575050505081018980610305565b805487840152869550918301918b91016104a5565b60ff19168552505080151502820190508980610305565b34610163576020366003190112610163576004356005548110156101635761014b61014561015f92612282565b3461016357602080600319360112610163576001600160a01b0361053461226c565b1660005260048152604060002090815461054d81612610565b9261055b6040519485611ff5565b8184526000908152828120838086015b848410610585576040518281528061015f8185018a612210565b6001918291610593856120c9565b815201920192019190849061056b565b3461016357602080600319360112610163576004356001600160401b038111610163576105d4903690600401612016565b90806105e9604051938481519384920161206c565b82019181816001948581520301902080549161060483612610565b926106126040519485611ff5565b8084528184018093600052826000206000915b8383106106f857505050506040519384938285019083865251809152604085019260408260051b87010194936000905b8382106106625787870388f35b918496819592949698508190603f198b82030185528951906106d26106b5610693845160e0855260e085019061216f565b60018060a01b038686015116868501526040850151848203604086015261216f565b60608085015190840152608080850151908483039085015261216f565b9160a0808201519083015260c08091015191015298019201920187969593919492610655565b96600785829798969960405161070d81611f8d565b610716866120c9565b8152858501546001600160a01b031683820152610735600287016120c9565b604082015260038601546060820152610750600487016120c9565b6080820152600586015460a0820152600686015460c08201528152019201920191909693959496610625565b346101635760e0366003190112610163576001600160401b03600435818111610163576107ad903690600401612016565b6024918235818111610163576107c7903690600401612016565b92608435828111610163576107e0903690600401612016565b9060a435838111610163576107f9903690600401612016565b9260c43590811161016357610812903690600401612016565b9260ff600d6040516020818161082e8b8381519384920161206c565b81016000815203019020015416610cc657604435918215610c8257606435938415610c3457875115610bf0576040519061086782611fbe565b87825288602083015284604083015285606083015285608083015260a08201528260c08201526108956122f5565b60e08201523361010082015260006101208201526000610140820152856101608201524261018082015260016101a08201526101a0600d604051602081816108e38d8381519384920161206c565b810160008152030190206108f884518261236d565b61090960208501516001830161236d565b60408401516002820155606084015160038201556080840151600482015561093860a08501516005830161236d565b61094960c08501516006830161236d565b61095a60e08501516007830161236d565b6008810160018060a01b03908161010087015116906001600160601b0360a01b918282541617905560098301826101208801511682825416179055600a83019161014087015116908254161790556109ba610160850151600b830161236d565b610180840151600c82015501910151151560ff80198354169116179055600554600160401b811015610bdb578060016109f69201600555612282565b919091610bc7575095610b7d610b6e7fd2d27cabe76b585241062644651e40bf6e7d0eee756689bc27a031ca732b465694610b5694610a388a610b859c61236d565b336000526002602052610a4f8a6040600020612471565b610a5a60065461249e565b600655610b2a89610a7a60208d816040519382858094519384920161206c565b81016001815203019020610ac8602e60405180946d02932b3b4b9ba32b932b21030ba160951b6020830152610ab8815180926020868601910161206c565b810103600e810185520183611ff5565b60405191610ad583611f8d565b8d8352336020840152604051610aea81611fda565b6012815271141c9bd91d58dd08149959da5cdd195c995960721b602082015260408401528b606084015260808301524260a08301524360c08301526124ad565b610b3560075461249e565b600755610b418a612540565b9760405196879660a0885260a088019061216f565b9260208701526040860152848203606086015261216f565b8281036080840152339661216f565b0390a3612540565b60006040519160408352600c60408401526b2932b3b4b9ba3930ba34b7b760a11b606084015242602084015260008051602061263c83398151915260803394a4005b634e487b7160e01b60005260006004526000fd5b50634e487b7160e01b60009081526041600452fd5b60405162461bcd60e51b815260206004820152601c818401527f50726f64756374206e616d652063616e6e6f7420626520656d707479000000006044820152606490fd5b60405162461bcd60e51b8152602060048201526021818401527f42617365207072696365206d7573742062652067726561746572207468616e206044820152600360fc1b6064820152608490fd5b606490601f6040519162461bcd60e51b8352602060048401528201527f5175616e74697479206d7573742062652067726561746572207468616e2030006044820152fd5b60405162461bcd60e51b8152602060048201526023818401527f50726f647563742077697468207468697320494420616c72656164792065786960448201526273747360e81b6064820152608490fd5b34610163576000366003190112610163576020600754604051908152f35b3461016357604036600319011261016357610d4d61226c565b6001600160a01b031660009081526003602052604090208054602435908110156101635761014561014b9161015f936122b9565b3461016357604036600319011261016357610d9a61226c565b6001600160a01b031660009081526004602052604090208054602435908110156101635761014561014b9161015f936122b9565b34610163576000366003190112610163576020600654604051908152f35b3461016357602080600319360112610163576004356001600160401b03811161016357610e1d903690600401612016565b9060405191610e4f60ff600d835195858181870198610e3d81838c61206c565b81016000815203019020015416612560565b610e616040519384925192839161206c565b8201918181600194858152030190208054610e7b81612610565b91610e896040519384611ff5565b81835260009081528381208484015b838310611057578451858888610ead84612610565b92610ebb6040519485611ff5565b848452610ec785612610565b601f1995858401918701368337610edd81612610565b90610eeb6040519283611ff5565b80825287610ef882612610565b0160005b818110611048575050610f0e81612610565b93610f1c6040519586611ff5565b818552610f2882612610565b8587019901368a3760005b828110610fcd5750506040519660a08801918789528689015260a060408901525180915260c08701929060005b818110610fb15750505081610f7d91878694036060890152612210565b918583036080870152519182815201949160005b828110610f9e5785870386f35b8351875295810195928101928401610f91565b82516001600160a01b0316855293860193918601918701610f60565b96989694959461103d906001600160a01b0387610fea8386612627565b51015116610ff8828c612627565b5260406110058285612627565b5101516110128287612627565b5261101d8186612627565b5060a061102a8285612627565b510151611037828a612627565b5261249e565b989698959495610f33565b60608482018801528601610efc565b600786889260405161106881611f8d565b611071866120c9565b8152858501546001600160a01b031683820152611090600287016120c9565b6040820152600386015460608201526110ab600487016120c9565b6080820152600586015460a0820152600686015460c0820152815201920192019190610e98565b34610163576020366003190112610163576004356001600160401b03811161016357602061110761119f923690600401612016565b60006101a060405161111881611fbe565b60608152606085820152826040820152826060820152826080820152606060a0820152606060c0820152606060e082015282610100820152826101208201528261014082015260606101608201528261018082015201526040519061118e60ff600d835194868181870197610e3d81838b61206c565b60405193849283925192839161206c565b8101600081520301902060ff600d604051926111ba84611fbe565b6111c3816120c9565b84526111d1600182016120c9565b6020850152600281015460408501526003810154606085015260048101546080850152611200600582016120c9565b60a0850152611211600682016120c9565b60c0850152611222600782016120c9565b60e085015260088101546001600160a01b0390811661010086015260098201548116610120860152600a82015416610140850152611262600b82016120c9565b610160850152600c81015461018085015201541615156101a08201526040518091602082526101a06113756113286113116112fb6112c76112b187516101c060208b01526101e08a019061216f565b6020880151898203601f190160408b015261216f565b6040870151606089015260608701516080890152608087015160a089015260a0870151601f198983030160c08a015261216f565b60c0860151878203601f190160e089015261216f565b60e0850151868203601f190161010088015261216f565b6101008401516001600160a01b03908116610120878101919091528501518116610140808801919091528501511661016080870191909152840151858203601f190161018087015261216f565b9161018081015182850152015115156101c08301520390f35b34610163576000366003190112610163576005546113ab81612610565b906113b96040519283611ff5565b80825260209081830160056000527f036b6384b5eca791c62761152d0c79bb0604c104a5fb6f4eb0703f3154bb3db0836000925b848410611407576040518281528061015f8185018a612210565b6001918291611415856120c9565b81520192019201919084906113ed565b3461016357611433366121c6565b916040519281519061145660ff600d602097888181890197610e3d81838b61206c565b61145e6122f5565b60076040518781875161147281838a61206c565b810160008152030190200194604051916000968054936114918561208f565b8082528a8201926001968c88821691826000146116e35750506001146116ab575b505090816114ca6114da949361166a9a9b0382611ff5565b51902090898151910120146125a5565b6115ec6115798860405181818b516114f381838d61206c565b810160008152030190209660098801336001600160601b0360a01b82541617905561152360048901958654612603565b8555600788019561153d611537885461208f565b88612345565b69125b88151c985b9cda5d60b21b9660148801905533600052600383526115688b6040600020612471565b604051809481938d5192839161206c565b820190815203019020938254946040519161159383611f8d565b898352338b840152604051966115a888611fda565b6016885275151c985b9cdc1bdc9d185d1a5bdb8814dd185c9d195960521b97888d8201526040850152606084015260808301524260a08301524360c08301526124ad565b6115f760075461249e565b600755549061160586612540565b9160405193606085526016606086015260808501528784015260a06040840152600a60a084015260c08301527fa759eb65cc9286427d92c3b423c2d7a7e10821f05f598b848c6ea8de4d3e37e960e03393a3600801546001600160a01b031691612540565b6040519260408452600e60408501526d2a3930b739b837b93a30ba34b7b760911b6060850152429084015260008051602061263c83398151915260803394a4005b90995060005289806000206000905b8b82106116d057508201019850806114ca6114b2565b80548483018401529082019087016116ba565b60ff1916865292151560051b84019092019a508291506114ca90506114b2565b3461016357611711366121c6565b916040519281519061173460ff600d602097888181890197610e3d81838b61206c565b6040519361174185611fda565b600a85528585019069125b88151c985b9cda5d60b21b825260076040518881885161176d81838b61206c565b8101600081520301902001956040519260009780549461178c8661208f565b8082528b8201926001978d89821691826000146119c257505060011461198a575b505090816117c66117d39594936119519b9c0382611ff5565b51902091519020146125a5565b6118d36118688860405181818b516117ec81838d61206c565b8101600081520301902096600a8801336001600160601b0360a01b82541617905561181c60048901958654612603565b85556007880195611830611537885461208f565b76417661696c61626c6520666f7220436f6e73756d65727360481b96602e8801905533600052600483526115688b6040600020612471565b820190815203019020938254946040519161188283611f8d565b898352338b8401526040519661189788611fda565b600e88526d416464656420746f2053746f726560901b97888d8201526040850152606084015260808301524260a08301524360c08301526124ad565b6118de60075461249e565b60075554906118ec86612540565b916040519360608552600e606086015260808501528784015260a06040840152601760a084015260c08301527fa759eb65cc9286427d92c3b423c2d7a7e10821f05f598b848c6ea8de4d3e37e960e03393a3600901546001600160a01b031691612540565b6040519260408452600660408501526514995d185a5b60d21b6060850152429084015260008051602061263c83398151915260803394a4005b909a506000528a806000206000905b8c82106119af57508201019950806117c66117ad565b8054848301840152908201908801611999565b60ff1916865292151560051b84019092019b508291506117c690506117ad565b3461016357602080600319360112610163576004356001600160401b03811161016357611a13903690600401612016565b604051611a3160ff600d845193868181880196610e3d81838a61206c565b8260405191611a3f83611fda565b601783528183019276417661696c61626c6520666f7220436f6e73756d65727360481b8452600760405184818851611a7881838961206c565b81016000815203019020019360405194600095815496611a978861208f565b808352878301936001998a81169081600014611cef5750600114611cbc575b505092611ad492826117c6611c819a999794611b2c99970382611ff5565b60405182818851611ae681838761206c565b810160008152030190209360078501611b08611b02825461208f565b82612345565b60126811195b1a5d995c995960ba1b0190556040518751909485938290859061206c565b820190815203019020611bd7600483019182549060405191611b4d83611f8d565b8783523389840152604051611b6181611fda565b60158152742232b634bb32b932b2103a379021b7b739bab6b2b960591b8a82015260408401526060830152604051611b9881611fda565b601e81527f50726f64756374207375636365737366756c6c792064656c69766572656400008982015260808301524260a08301524360c08301526124ad565b611be260075461249e565b60075554611bef84612540565b7fa759eb65cc9286427d92c3b423c2d7a7e10821f05f598b848c6ea8de4d3e37e960405160608152611c3b60608201604090600981526811195b1a5d995c995960ba1b60208201520190565b9388820152808403604082015280611c6b3395604090600981526811195b1a5d995c995960ba1b60208201520190565b0390a3600a01546001600160a01b031691612540565b6040519260408452600860408501526744656c697665727960c01b6060850152429084015260008051602061263c83398151915260803394a4005b60009081528881209092505b818310611cdc575050810186018282611ab6565b80548484018a0152918801918901611cc8565b60ff191686525050151560051b8201870190508282611ab6565b34610163576040366003190112610163576004356001600160401b03811161016357611d39903690600401612016565b611d55602060243592816040519382858094519384920161206c565b81016001815203019020805482101561016357611dd591611d7591612194565b50611d7f816120c9565b60018201549091906001600160a01b0316611dfb611d9f600284016120c9565b91600384015490611de8611db5600487016120c9565b916006600588015497015495604051998a9960e08b5260e08b019061216f565b9160208a015288820360408a015261216f565b916060870152858203608087015261216f565b9160a084015260c08301520390f35b34610163576020366003190112610163576004356001600160401b03811161016357611e3a903690600401612016565b6040518181809351602081930191611e519261206c565b810160008152036020019020611e66816120c9565b90611e73600182016120c9565b9060028101549260038201549060048301549060058401611e93906120c9565b90611ea0600686016120c9565b611eac600787016120c9565b600160a01b600190039182600889015416948360098a01541693600a8a01541694600b8a01611eda906120c9565b97600c8b01549a600d015460ff16996040519d8e9d8e946101c08087528601611f029161216f565b8581036020870152611f139161216f565b936040015260608d015260808c01528a810360a08c0152611f339161216f565b89810360c08b0152611f449161216f565b88810360e08a0152611f559161216f565b92610100880152610120870152610140860152848103610160860152611f7a9161216f565b9161018084015215156101a08301520390f35b60e081019081106001600160401b03821117611fa857604052565b634e487b7160e01b600052604160045260246000fd5b6101c081019081106001600160401b03821117611fa857604052565b604081019081106001600160401b03821117611fa857604052565b90601f801991011681019081106001600160401b03821117611fa857604052565b81601f82011215610163578035906001600160401b038211611fa8576040519261204a601f8401601f191660200185611ff5565b8284526020838301011161016357816000926020809301838601378301015290565b60005b83811061207f5750506000910152565b818101518382015260200161206f565b90600182811c921680156120bf575b60208310146120a957565b634e487b7160e01b600052602260045260246000fd5b91607f169161209e565b90604051918260008254926120dd8461208f565b90818452600194858116908160001461214c5750600114612109575b505061210792500383611ff5565b565b9093915060005260209081600020936000915b818310612134575050612107935082010138806120f9565b8554888401850152948501948794509183019161211c565b91505061210794506020925060ff191682840152151560051b82010138806120f9565b906020916121888151809281855285808601910161206c565b601f01601f1916010190565b80548210156121b0576000526007602060002091020190600090565b634e487b7160e01b600052603260045260246000fd5b6060600319820112610163576001600160401b039160043583811161016357826121f291600401612016565b92602435926044359182116101635761220d91600401612016565b90565b908082519081815260208091019281808460051b8301019501936000915b84831061223e5750505050505090565b909192939495848061225c600193601f198682030187528a5161216f565b980193019301919493929061222e565b600435906001600160a01b038216820361016357565b6005548110156121b05760056000527f036b6384b5eca791c62761152d0c79bb0604c104a5fb6f4eb0703f3154bb3db00190600090565b80548210156121b05760005260206000200190600090565b906122df5761220d906120c9565b634e487b7160e01b600052600060045260246000fd5b6040519061230282611fda565b601a82527f417661696c61626c6520666f7220446973747269627574696f6e0000000000006020830152565b818110612339575050565b6000815560010161232e565b90601f8111612352575050565b61210791600052601f6020600020910160051c81019061232e565b91909182516001600160401b038111611fa85761238a825461208f565b601f8111612434575b50602080601f83116001146123d05750819293946000926123c5575b50508160011b916000199060031b1c1916179055565b0151905038806123af565b90601f198316958460005282600020926000905b88821061241c57505083600195969710612403575b505050811b019055565b015160001960f88460031b161c191690553880806123f9565b806001859682949686015181550195019301906123e4565b61246190836000526020600020601f840160051c81019160208510612467575b601f0160051c019061232e565b38612393565b9091508190612454565b8054600160401b811015611fa85761248e916001820181556122b9565b9190916122df576121079161236d565b600019811461047e5760010190565b8054600160401b811015611fa8576124ca91600182018155612194565b9190916122df5760c0816124e1600693518561236d565b6001840160018060a01b036020830151166001600160601b0360a01b82541617905561251460408201516002860161236d565b6060810151600385015561252f60808201516004860161236d565b60a081015160058501550151910155565b6125589060206040519282848094519384920161206c565b810103902090565b1561256757565b60405162461bcd60e51b8152602060048201526016602482015275141c9bd91d58dd08191bd95cc81b9bdd08195e1a5cdd60521b6044820152606490fd5b156125ac57565b60405162461bcd60e51b815260206004820152602960248201527f496e76616c69642070726f647563742073746174757320666f7220746869732060448201526837b832b930ba34b7b760b91b6064820152608490fd5b9190820180921161047e57565b6001600160401b038111611fa85760051b60200190565b80518210156121b05760209160051b01019056feb2aab564fcd371fd7d4adf535d0e85a845a6103f8c4d6ec818e76e63297bf954a2646970667358221220e7bca92ec56c7f66396578875a9b164027feedac81d1fa12dacfee51ed04c23164736f6c63430008130033",
  "linkReferences": {},
  "deployedLinkReferences": {}
}