{"contracts/AgriChain.sol":{"KrishiSetu":{"abi":[{"anonymous":false,"inputs":[{"indexed":true,"internalType":"string","name":"productId","type":"string"},{"indexed":true,"internalType":"address","name":"farmer","type":"address"},{"indexed":false,"internalType":"string","name":"name","type":"string"},{"indexed":false,"internalType":"uint256","name":"quantity","type":"uint256"},{"indexed":false,"internalType":"uint256","name":"basePrice","type":"uint256"},{"indexed":false,"internalType":"string","name":"quality","type":"string"},{"indexed":false,"internalType":"string","name":"location","type":"string"}],"name":"ProductRegistered","type":"event"},{"anonymous":false,"inputs":[{"indexed":true,"internalType":"string","name":"productId","type":"string"},{"indexed":true,"internalType":"address","name":"actor","type":"address"},{"indexed":false,"internalType":"string","name":"action","type":"string"},{"indexed":false,"internalType":"uint256","name":"newPrice","type":"uint256"},{"indexed":false,"internalType":"string","name":"status","type":"string"}],"name":"ProductUpdated","type":"event"},{"anonymous":false,"inputs":[{"indexed":true,"internalType":"string","name":"productId","type":"string"},{"indexed":true,"internalType":"address","name":"from","type":"address"},{"indexed":true,"internalType":"address","name":"to","type":"address"},{"indexed":false,"internalType":"string","name":"step","type":"string"},{"indexed":false,"internalType":"uint256","name":"timestamp","type":"uint256"}],"name":"SupplyChainStep","type":"event"},{"inputs":[{"internalType":"uint256","name":"","type":"uint256"}],"name":"allProductIds","outputs":[{"internalType":"string","name":"","type":"string"}],"stateMutability":"view","type":"function"},{"inputs":[{"internalType":"address","name":"","type":"address"},{"internalType":"uint256","name":"","type":"uint256"}],"name":"distributorProducts","outputs":[{"internalType":"string","name":"","type":"string"}],"stateMutability":"view","type":"function"},{"inputs":[{"internalType":"address","name":"","type":"address"},{"internalType":"uint256","name":"","type":"uint256"}],"name":"farmerProducts","outputs":[{"internalType":"string","name":"","type":"string"}],"stateMutability":"view","type":"function"},{"inputs":[],"name":"getAllProductIds","outputs":[{"internalType":"string[]","name":"","type":"string[]"}],"stateMutability":"view","type":"function"},{"inputs":[],"name":"getContractStats","outputs":[{"internalType":"uint256","name":"_totalProducts","type":"uint256"},{"internalType":"uint256","name":"_totalTransactions","type":"uint256"},{"internalType":"uint256","name":"_totalValue","type":"uint256"},{"internalType":"uint256","name":"_activeProducts","type":"uint256"}],"stateMutability":"view","type":"function"},{"inputs":[{"internalType":"string","name":"_productId","type":"string"}],"name":"getProduct","outputs":[{"components":[{"internalType":"string","name":"id","type":"string"},{"internalType":"string","name":"name","type":"string"},{"internalType":"uint256","name":"quantity","type":"uint256"},{"internalType":"uint256","name":"basePrice","type":"uint256"},{"internalType":"uint256","name":"currentPrice","type":"uint256"},{"internalType":"string","name":"harvestDate","type":"string"},{"internalType":"string","name":"quality","type":"string"},{"internalType":"string","name":"status","type":"string"},{"internalType":"address","name":"farmer","type":"address"},{"internalType":"address","name":"distributor","type":"address"},{"internalType":"address","name":"retailer","type":"address"},{"internalType":"string","name":"location","type":"string"},{"internalType":"uint256","name":"timestamp","type":"uint256"},{"internalType":"bool","name":"exists","type":"bool"}],"internalType":"struct KrishiSetu.Product","name":"","type":"tuple"}],"stateMutability":"view","type":"function"},{"inputs":[{"internalType":"string","name":"_productId","type":"string"}],"name":"getProductHistory","outputs":[{"components":[{"internalType":"string","name":"productId","type":"string"},{"internalType":"address","name":"actor","type":"address"},{"internalType":"string","name":"action","type":"string"},{"internalType":"uint256","name":"newPrice","type":"uint256"},{"internalType":"string","name":"details","type":"string"},{"internalType":"uint256","name":"timestamp","type":"uint256"},{"internalType":"uint256","name":"blockNumber","type":"uint256"}],"internalType":"struct KrishiSetu.Transaction[]","name":"","type":"tuple[]"}],"stateMutability":"view","type":"function"},{"inputs":[{"internalType":"address","name":"_distributor","type":"address"}],"name":"getProductsByDistributor","outputs":[{"internalType":"string[]","name":"","type":"string[]"}],"stateMutability":"view","type":"function"},{"inputs":[{"internalType":"address","name":"_farmer","type":"address"}],"name":"getProductsByFarmer","outputs":[{"internalType":"string[]","name":"","type":"string[]"}],"stateMutability":"view","type":"function"},{"inputs":[{"internalType":"address","name":"_retailer","type":"address"}],"name":"getProductsByRetailer","outputs":[{"internalType":"string[]","name":"","type":"string[]"}],"stateMutability":"view","type":"function"},{"inputs":[{"internalType":"string","name":"_productId","type":"string"}],"name":"markAsDelivered","outputs":[],"stateMutability":"nonpayable","type":"function"},{"inputs":[{"internalType":"string","name":"","type":"string"},{"internalType":"uint256","name":"","type":"uint256"}],"name":"productHistory","outputs":[{"internalType":"string","name":"productId","type":"string"},{"internalType":"address","name":"actor","type":"address"},{"internalType":"string","name":"action","type":"string"},{"internalType":"uint256","name":"newPrice","type":"uint256"},{"internalType":"string","name":"details","type":"string"},{"internalType":"uint256","name":"timestamp","type":"uint256"},{"internalType":"uint256","name":"blockNumber","type":"uint256"}],"stateMutability":"view","type":"function"},{"inputs":[{"internalType":"string","name":"","type":"string"}],"name":"products","outputs":[{"internalType":"string","name":"id","type":"string"},{"internalType":"string","name":"name","type":"string"},{"internalType":"uint256","name":"quantity","type":"uint256"},{"internalType":"uint256","name":"basePrice","type":"uint256"},{"internalType":"uint256","name":"currentPrice","type":"uint256"},{"internalType":"string","name":"harvestDate","type":"string"},{"internalType":"string","name":"quality","type":"string"},{"internalType":"string","name":"status","type":"string"},{"internalType":"address","name":"farmer","type":"address"},{"internalType":"address","name":"distributor","type":"address"},{"internalType":"address","name":"retailer","type":"address"},{"internalType":"string","name":"location","type":"string"},{"internalType":"uint256","name":"timestamp","type":"uint256"},{"internalType":"bool","name":"exists","type":"bool"}],"stateMutability":"view","type":"function"},{"inputs":[{"internalType":"string","name":"_id","type":"string"},{"internalType":"string","name":"_name","type":"string"},{"internalType":"uint256","name":"_quantity","type":"uint256"},{"internalType":"uint256","name":"_basePrice","type":"uint256"},{"internalType":"string","name":"_harvestDate","type":"string"},{"internalType":"string","name":"_quality","type":"string"},{"internalType":"string","name":"_location","type":"string"}],"name":"registerProduct","outputs":[],"stateMutability":"nonpayable","type":"function"},{"inputs":[{"internalType":"address","name":"","type":"address"},{"internalType":"uint256","name":"","type":"uint256"}],"name":"retailerProducts","outputs":[{"internalType":"string","name":"","type":"string"}],"stateMutability":"view","type":"function"},{"inputs":[],"name":"totalProducts","outputs":[{"internalType":"uint256","name":"","type":"uint256"}],"stateMutability":"view","type":"function"},{"inputs":[],"name":"totalTransactions","outputs":[{"internalType":"uint256","name":"","type":"uint256"}],"stateMutability":"view","type":"function"},{"inputs":[{"internalType":"string","name":"_productId","type":"string"},{"internalType":"uint256","name":"_handlingCost","type":"uint256"},{"internalType":"string","name":"_transportDetails","type":"string"}],"name":"updateAsDistributor","outputs":[],"stateMutability":"nonpayable","type":"function"},{"inputs":[{"internalType":"string","name":"_productId","type":"string"},{"internalType":"uint256","name":"_retailMargin","type":"uint256"},{"internalType":"string","name":"_storeDetails","type":"string"}],"name":"updateAsRetailer","outputs":[],"stateMutability":"nonpayable","type":"function"},{"inputs":[{"internalType":"string","name":"_productId","type":"string"}],"name":"verifyProduct","outputs":[{"internalType":"bool","name":"verified","type":"bool"},{"internalType":"uint256","name":"totalSteps","type":"uint256"},{"internalType":"address[]","name":"actors","type":"address[]"},{"internalType":"string[]","name":"actions","type":"string[]"},{"internalType":"uint256[]","name":"timestamps","type":"uint256[]"}],"stateMutability":"view","type":"function"}],"evm":{"bytecode":{"linkReferences":{},"object":"6080806040523461001657612691908161001c8239f35b600080fdfe6080604052600436101561001257600080fd5b60003560e01c80630186a42314611e0a57806301970b1114611d09578063133ce051146119e25780633e8f0bc214611703578063530ba39714611425578063663c01af1461138e57806368111cce146110d257806392efc45314610dec5780639b9d326d14610dce5780639ecd211814610d81578063a160798814610d34578063b9a6003814610d16578063c0d4c18c1461077c578063d4f50453146105a3578063d666914714610512578063dde1bbcf146104e5578063dfe6b5d61461028a578063ec90a7b0146101f9578063f6fa3b92146101685763fece8772146100f857600080fd5b346101635760403660031901126101635761011161226c565b6001600160a01b031660009081526002602052604090208054602435908110156101635761014561014b9161015f936122b9565b906122d1565b60405191829160208352602083019061216f565b0390f35b600080fd5b3461016357602080600319360112610163576001600160a01b0361018a61226c565b166000526003815260406000209081546101a381612610565b926101b16040519485611ff5565b8184526000908152828120838086015b8484106101db576040518281528061015f8185018a612210565b60019182916101e9856120c9565b81520192019201919084906101c1565b3461016357602080600319360112610163576001600160a01b0361021b61226c565b1660005260028152604060002090815461023481612610565b926102426040519485611ff5565b8184526000908152828120838086015b84841061026c576040518281528061015f8185018a612210565b600191829161027a856120c9565b8152019201920191908490610252565b3461016357600036600319011261016357600580546000908190815b8181106102cf576080848460065491600754604051938452602084015260408301526060820152f35b6102d881612282565b50936040518060008754976102ec8961208f565b906001998a811690816000146104ce5750600114610494575b505060008152602092839103019020906103376040519761032589611fbe565b61032e846120c9565b895283016120c9565b8188015260028201549060408801918252600383015460608901526004830154608089019081526103698a85016120c9565b60a08a015261037a600685016120c9565b60c08a015261038b600785016120c9565b9860e08101998a526101a060ff600d60018060a01b039788600882015416610100860152600998808a83015416610120870152600a820154166101408601526103d6600b82016120c9565b610160860152600c81015461018086015201541615159101525191519182810292818404149015171561047e5761043b6811195b1a5d995c995960ba1b927f84d438931365e92021ed104a3ccc6ebb11094926f21ebfcbd81ad9746006c51095612603565b9751818151910120926040519061045182611fda565b8152015203610469575b6104649061249e565b6102a6565b916104766104649161249e565b92905061045b565b634e487b7160e01b600052601160045260246000fd5b909150600052602080600020896000915b8483106104b9575050505081018980610305565b805487840152869550918301918b91016104a5565b60ff19168552505080151502820190508980610305565b34610163576020366003190112610163576004356005548110156101635761014b61014561015f92612282565b3461016357602080600319360112610163576001600160a01b0361053461226c565b1660005260048152604060002090815461054d81612610565b9261055b6040519485611ff5565b8184526000908152828120838086015b848410610585576040518281528061015f8185018a612210565b6001918291610593856120c9565b815201920192019190849061056b565b3461016357602080600319360112610163576004356001600160401b038111610163576105d4903690600401612016565b90806105e9604051938481519384920161206c565b82019181816001948581520301902080549161060483612610565b926106126040519485611ff5565b8084528184018093600052826000206000915b8383106106f857505050506040519384938285019083865251809152604085019260408260051b87010194936000905b8382106106625787870388f35b918496819592949698508190603f198b82030185528951906106d26106b5610693845160e0855260e085019061216f565b60018060a01b038686015116868501526040850151848203604086015261216f565b60608085015190840152608080850151908483039085015261216f565b9160a0808201519083015260c08091015191015298019201920187969593919492610655565b96600785829798969960405161070d81611f8d565b610716866120c9565b8152858501546001600160a01b031683820152610735600287016120c9565b604082015260038601546060820152610750600487016120c9565b6080820152600586015460a0820152600686015460c08201528152019201920191909693959496610625565b346101635760e0366003190112610163576001600160401b03600435818111610163576107ad903690600401612016565b6024918235818111610163576107c7903690600401612016565b92608435828111610163576107e0903690600401612016565b9060a435838111610163576107f9903690600401612016565b9260c43590811161016357610812903690600401612016565b9260ff600d6040516020818161082e8b8381519384920161206c565b81016000815203019020015416610cc657604435918215610c8257606435938415610c3457875115610bf0576040519061086782611fbe565b87825288602083015284604083015285606083015285608083015260a08201528260c08201526108956122f5565b60e08201523361010082015260006101208201526000610140820152856101608201524261018082015260016101a08201526101a0600d604051602081816108e38d8381519384920161206c565b810160008152030190206108f884518261236d565b61090960208501516001830161236d565b60408401516002820155606084015160038201556080840151600482015561093860a08501516005830161236d565b61094960c08501516006830161236d565b61095a60e08501516007830161236d565b6008810160018060a01b03908161010087015116906001600160601b0360a01b918282541617905560098301826101208801511682825416179055600a83019161014087015116908254161790556109ba610160850151600b830161236d565b610180840151600c82015501910151151560ff80198354169116179055600554600160401b811015610bdb578060016109f69201600555612282565b919091610bc7575095610b7d610b6e7fd2d27cabe76b585241062644651e40bf6e7d0eee756689bc27a031ca732b465694610b5694610a388a610b859c61236d565b336000526002602052610a4f8a6040600020612471565b610a5a60065461249e565b600655610b2a89610a7a60208d816040519382858094519384920161206c565b81016001815203019020610ac8602e60405180946d02932b3b4b9ba32b932b21030ba160951b6020830152610ab8815180926020868601910161206c565b810103600e810185520183611ff5565b60405191610ad583611f8d565b8d8352336020840152604051610aea81611fda565b6012815271141c9bd91d58dd08149959da5cdd195c995960721b602082015260408401528b606084015260808301524260a08301524360c08301526124ad565b610b3560075461249e565b600755610b418a612540565b9760405196879660a0885260a088019061216f565b9260208701526040860152848203606086015261216f565b8281036080840152339661216f565b0390a3612540565b60006040519160408352600c60408401526b2932b3b4b9ba3930ba34b7b760a11b606084015242602084015260008051602061263c83398151915260803394a4005b634e487b7160e01b60005260006004526000fd5b50634e487b7160e01b60009081526041600452fd5b60405162461bcd60e51b815260206004820152601c818401527f50726f64756374206e616d652063616e6e6f7420626520656d707479000000006044820152606490fd5b60405162461bcd60e51b8152602060048201526021818401527f42617365207072696365206d7573742062652067726561746572207468616e206044820152600360fc1b6064820152608490fd5b606490601f6040519162461bcd60e51b8352602060048401528201527f5175616e74697479206d7573742062652067726561746572207468616e2030006044820152fd5b60405162461bcd60e51b8152602060048201526023818401527f50726f647563742077697468207468697320494420616c72656164792065786960448201526273747360e81b6064820152608490fd5b34610163576000366003190112610163576020600754604051908152f35b3461016357604036600319011261016357610d4d61226c565b6001600160a01b031660009081526003602052604090208054602435908110156101635761014561014b9161015f936122b9565b3461016357604036600319011261016357610d9a61226c565b6001600160a01b031660009081526004602052604090208054602435908110156101635761014561014b9161015f936122b9565b34610163576000366003190112610163576020600654604051908152f35b3461016357602080600319360112610163576004356001600160401b03811161016357610e1d903690600401612016565b9060405191610e4f60ff600d835195858181870198610e3d81838c61206c565b81016000815203019020015416612560565b610e616040519384925192839161206c565b8201918181600194858152030190208054610e7b81612610565b91610e896040519384611ff5565b81835260009081528381208484015b838310611057578451858888610ead84612610565b92610ebb6040519485611ff5565b848452610ec785612610565b601f1995858401918701368337610edd81612610565b90610eeb6040519283611ff5565b80825287610ef882612610565b0160005b818110611048575050610f0e81612610565b93610f1c6040519586611ff5565b818552610f2882612610565b8587019901368a3760005b828110610fcd5750506040519660a08801918789528689015260a060408901525180915260c08701929060005b818110610fb15750505081610f7d91878694036060890152612210565b918583036080870152519182815201949160005b828110610f9e5785870386f35b8351875295810195928101928401610f91565b82516001600160a01b0316855293860193918601918701610f60565b96989694959461103d906001600160a01b0387610fea8386612627565b51015116610ff8828c612627565b5260406110058285612627565b5101516110128287612627565b5261101d8186612627565b5060a061102a8285612627565b510151611037828a612627565b5261249e565b989698959495610f33565b60608482018801528601610efc565b600786889260405161106881611f8d565b611071866120c9565b8152858501546001600160a01b031683820152611090600287016120c9565b6040820152600386015460608201526110ab600487016120c9565b6080820152600586015460a0820152600686015460c0820152815201920192019190610e98565b34610163576020366003190112610163576004356001600160401b03811161016357602061110761119f923690600401612016565b60006101a060405161111881611fbe565b60608152606085820152826040820152826060820152826080820152606060a0820152606060c0820152606060e082015282610100820152826101208201528261014082015260606101608201528261018082015201526040519061118e60ff600d835194868181870197610e3d81838b61206c565b60405193849283925192839161206c565b8101600081520301902060ff600d604051926111ba84611fbe565b6111c3816120c9565b84526111d1600182016120c9565b6020850152600281015460408501526003810154606085015260048101546080850152611200600582016120c9565b60a0850152611211600682016120c9565b60c0850152611222600782016120c9565b60e085015260088101546001600160a01b0390811661010086015260098201548116610120860152600a82015416610140850152611262600b82016120c9565b610160850152600c81015461018085015201541615156101a08201526040518091602082526101a06113756113286113116112fb6112c76112b187516101c060208b01526101e08a019061216f565b6020880151898203601f190160408b015261216f565b6040870151606089015260608701516080890152608087015160a089015260a0870151601f198983030160c08a015261216f565b60c0860151878203601f190160e089015261216f565b60e0850151868203601f190161010088015261216f565b6101008401516001600160a01b03908116610120878101919091528501518116610140808801919091528501511661016080870191909152840151858203601f190161018087015261216f565b9161018081015182850152015115156101c08301520390f35b34610163576000366003190112610163576005546113ab81612610565b906113b96040519283611ff5565b80825260209081830160056000527f036b6384b5eca791c62761152d0c79bb0604c104a5fb6f4eb0703f3154bb3db0836000925b848410611407576040518281528061015f8185018a612210565b6001918291611415856120c9565b81520192019201919084906113ed565b3461016357611433366121c6565b916040519281519061145660ff600d602097888181890197610e3d81838b61206c565b61145e6122f5565b60076040518781875161147281838a61206c565b810160008152030190200194604051916000968054936114918561208f565b8082528a8201926001968c88821691826000146116e35750506001146116ab575b505090816114ca6114da949361166a9a9b0382611ff5565b51902090898151910120146125a5565b6115ec6115798860405181818b516114f381838d61206c565b810160008152030190209660098801336001600160601b0360a01b82541617905561152360048901958654612603565b8555600788019561153d611537885461208f565b88612345565b69125b88151c985b9cda5d60b21b9660148801905533600052600383526115688b6040600020612471565b604051809481938d5192839161206c565b820190815203019020938254946040519161159383611f8d565b898352338b840152604051966115a888611fda565b6016885275151c985b9cdc1bdc9d185d1a5bdb8814dd185c9d195960521b97888d8201526040850152606084015260808301524260a08301524360c08301526124ad565b6115f760075461249e565b600755549061160586612540565b9160405193606085526016606086015260808501528784015260a06040840152600a60a084015260c08301527fa759eb65cc9286427d92c3b423c2d7a7e10821f05f598b848c6ea8de4d3e37e960e03393a3600801546001600160a01b031691612540565b6040519260408452600e60408501526d2a3930b739b837b93a30ba34b7b760911b6060850152429084015260008051602061263c83398151915260803394a4005b90995060005289806000206000905b8b82106116d057508201019850806114ca6114b2565b80548483018401529082019087016116ba565b60ff1916865292151560051b84019092019a508291506114ca90506114b2565b3461016357611711366121c6565b916040519281519061173460ff600d602097888181890197610e3d81838b61206c565b6040519361174185611fda565b600a85528585019069125b88151c985b9cda5d60b21b825260076040518881885161176d81838b61206c565b8101600081520301902001956040519260009780549461178c8661208f565b8082528b8201926001978d89821691826000146119c257505060011461198a575b505090816117c66117d39594936119519b9c0382611ff5565b51902091519020146125a5565b6118d36118688860405181818b516117ec81838d61206c565b8101600081520301902096600a8801336001600160601b0360a01b82541617905561181c60048901958654612603565b85556007880195611830611537885461208f565b76417661696c61626c6520666f7220436f6e73756d65727360481b96602e8801905533600052600483526115688b6040600020612471565b820190815203019020938254946040519161188283611f8d565b898352338b8401526040519661189788611fda565b600e88526d416464656420746f2053746f726560901b97888d8201526040850152606084015260808301524260a08301524360c08301526124ad565b6118de60075461249e565b60075554906118ec86612540565b916040519360608552600e606086015260808501528784015260a06040840152601760a084015260c08301527fa759eb65cc9286427d92c3b423c2d7a7e10821f05f598b848c6ea8de4d3e37e960e03393a3600901546001600160a01b031691612540565b6040519260408452600660408501526514995d185a5b60d21b6060850152429084015260008051602061263c83398151915260803394a4005b909a506000528a806000206000905b8c82106119af57508201019950806117c66117ad565b8054848301840152908201908801611999565b60ff1916865292151560051b84019092019b508291506117c690506117ad565b3461016357602080600319360112610163576004356001600160401b03811161016357611a13903690600401612016565b604051611a3160ff600d845193868181880196610e3d81838a61206c565b8260405191611a3f83611fda565b601783528183019276417661696c61626c6520666f7220436f6e73756d65727360481b8452600760405184818851611a7881838961206c565b81016000815203019020019360405194600095815496611a978861208f565b808352878301936001998a81169081600014611cef5750600114611cbc575b505092611ad492826117c6611c819a999794611b2c99970382611ff5565b60405182818851611ae681838761206c565b810160008152030190209360078501611b08611b02825461208f565b82612345565b60126811195b1a5d995c995960ba1b0190556040518751909485938290859061206c565b820190815203019020611bd7600483019182549060405191611b4d83611f8d565b8783523389840152604051611b6181611fda565b60158152742232b634bb32b932b2103a379021b7b739bab6b2b960591b8a82015260408401526060830152604051611b9881611fda565b601e81527f50726f64756374207375636365737366756c6c792064656c69766572656400008982015260808301524260a08301524360c08301526124ad565b611be260075461249e565b60075554611bef84612540565b7fa759eb65cc9286427d92c3b423c2d7a7e10821f05f598b848c6ea8de4d3e37e960405160608152611c3b60608201604090600981526811195b1a5d995c995960ba1b60208201520190565b9388820152808403604082015280611c6b3395604090600981526811195b1a5d995c995960ba1b60208201520190565b0390a3600a01546001600160a01b031691612540565b6040519260408452600860408501526744656c697665727960c01b6060850152429084015260008051602061263c83398151915260803394a4005b60009081528881209092505b818310611cdc575050810186018282611ab6565b80548484018a0152918801918901611cc8565b60ff191686525050151560051b8201870190508282611ab6565b34610163576040366003190112610163576004356001600160401b03811161016357611d39903690600401612016565b611d55602060243592816040519382858094519384920161206c565b81016001815203019020805482101561016357611dd591611d7591612194565b50611d7f816120c9565b60018201549091906001600160a01b0316611dfb611d9f600284016120c9565b91600384015490611de8611db5600487016120c9565b916006600588015497015495604051998a9960e08b5260e08b019061216f565b9160208a015288820360408a015261216f565b916060870152858203608087015261216f565b9160a084015260c08301520390f35b34610163576020366003190112610163576004356001600160401b03811161016357611e3a903690600401612016565b6040518181809351602081930191611e519261206c565b810160008152036020019020611e66816120c9565b90611e73600182016120c9565b9060028101549260038201549060048301549060058401611e93906120c9565b90611ea0600686016120c9565b611eac600787016120c9565b600160a01b600190039182600889015416948360098a01541693600a8a01541694600b8a01611eda906120c9565b97600c8b01549a600d015460ff16996040519d8e9d8e946101c08087528601611f029161216f565b8581036020870152611f139161216f565b936040015260608d015260808c01528a810360a08c0152611f339161216f565b89810360c08b0152611f449161216f565b88810360e08a0152611f559161216f565b92610100880152610120870152610140860152848103610160860152611f7a9161216f565b9161018084015215156101a08301520390f35b60e081019081106001600160401b03821117611fa857604052565b634e487b7160e01b600052604160045260246000fd5b6101c081019081106001600160401b03821117611fa857604052565b604081019081106001600160401b03821117611fa857604052565b90601f801991011681019081106001600160401b03821117611fa857604052565b81601f82011215610163578035906001600160401b038211611fa8576040519261204a601f8401601f191660200185611ff5565b8284526020838301011161016357816000926020809301838601378301015290565b60005b83811061207f5750506000910152565b818101518382015260200161206f565b90600182811c921680156120bf575b60208310146120a957565b634e487b7160e01b600052602260045260246000fd5b91607f169161209e565b90604051918260008254926120dd8461208f565b90818452600194858116908160001461214c5750600114612109575b505061210792500383611ff5565b565b9093915060005260209081600020936000915b818310612134575050612107935082010138806120f9565b8554888401850152948501948794509183019161211c565b91505061210794506020925060ff191682840152151560051b82010138806120f9565b906020916121888151809281855285808601910161206c565b601f01601f1916010190565b80548210156121b0576000526007602060002091020190600090565b634e487b7160e01b600052603260045260246000fd5b6060600319820112610163576001600160401b039160043583811161016357826121f291600401612016565b92602435926044359182116101635761220d91600401612016565b90565b908082519081815260208091019281808460051b8301019501936000915b84831061223e5750505050505090565b909192939495848061225c600193601f198682030187528a5161216f565b980193019301919493929061222e565b600435906001600160a01b038216820361016357565b6005548110156121b05760056000527f036b6384b5eca791c62761152d0c79bb0604c104a5fb6f4eb0703f3154bb3db00190600090565b80548210156121b05760005260206000200190600090565b906122df5761220d906120c9565b634e487b7160e01b600052600060045260246000fd5b6040519061230282611fda565b601a82527f417661696c61626c6520666f7220446973747269627574696f6e0000000000006020830152565b818110612339575050565b6000815560010161232e565b90601f8111612352575050565b61210791600052601f6020600020910160051c81019061232e565b91909182516001600160401b038111611fa85761238a825461208f565b601f8111612434575b50602080601f83116001146123d05750819293946000926123c5575b50508160011b916000199060031b1c1916179055565b0151905038806123af565b90601f198316958460005282600020926000905b88821061241c57505083600195969710612403575b505050811b019055565b015160001960f88460031b161c191690553880806123f9565b806001859682949686015181550195019301906123e4565b61246190836000526020600020601f840160051c81019160208510612467575b601f0160051c019061232e565b38612393565b9091508190612454565b8054600160401b811015611fa85761248e916001820181556122b9565b9190916122df576121079161236d565b600019811461047e5760010190565b8054600160401b811015611fa8576124ca91600182018155612194565b9190916122df5760c0816124e1600693518561236d565b6001840160018060a01b036020830151166001600160601b0360a01b82541617905561251460408201516002860161236d565b6060810151600385015561252f60808201516004860161236d565b60a081015160058501550151910155565b6125589060206040519282848094519384920161206c565b810103902090565b1561256757565b60405162461bcd60e51b8152602060048201526016602482015275141c9bd91d58dd08191bd95cc81b9bdd08195e1a5cdd60521b6044820152606490fd5b156125ac57565b60405162461bcd60e51b815260206004820152602960248201527f496e76616c69642070726f647563742073746174757320666f7220746869732060448201526837b832b930ba34b7b760b91b6064820152608490fd5b9190820180921161047e57565b6001600160401b038111611fa85760051b60200190565b80518210156121b05760209160051b01019056feb2aab564fcd371fd7d4adf535d0e85a845a6103f8c4d6ec818e76e63297bf954a2646970667358221220e7bca92ec56c7f66396578875a9b164027feedac81d1fa12dacfee51ed04c23164736f6c63430008130033","opcodes":"PUSH1 0x80 DUP1 PUSH1 0x40 MSTORE CALLVALUE PUSH2 0x16 JUMPI PUSH2 0x2691 SWAP1 DUP2 PUSH2 0x1C DUP3 CODECOPY RETURN JUMPDEST PUSH1 0x0 DUP1 REVERT INVALID PUSH1 0x80 PUSH1 0x40 MSTORE PUSH1 0x4 CALLDATASIZE LT ISZERO PUSH2 0x12 JUMPI PUSH1 0x0 DUP1 REVERT JUMPDEST PUSH1 0x0 CALLDATALOAD PUSH1 0xE0 SHR DUP1 PUSH4 0x186A423 EQ PUSH2 0x1E0A JUMPI DUP1 PUSH4 0x1970B11 EQ PUSH2 0x1D09 JUMPI DUP1 PUSH4 0x133CE051 EQ PUSH2 0x19E2 JUMPI DUP1 PUSH4 0x3E8F0BC2 EQ PUSH2 0x1703 JUMPI DUP1 PUSH4 0x530BA397 EQ PUSH2 0x1425 JUMPI DUP1 PUSH4 0x663C01AF EQ PUSH2 0x138E JUMPI DUP1 PUSH4 0x68111CCE EQ PUSH2 0x10D2 JUMPI DUP1 PUSH4 0x92EFC453 EQ PUSH2 0xDEC JUMPI DUP1 PUSH4 0x9B9D326D EQ PUSH2 0xDCE JUMPI DUP1 PUSH4 0x9ECD2118 EQ PUSH2 0xD81 JUMPI DUP1 PUSH4 0xA1607988 EQ PUSH2 0xD34 JUMPI DUP1 PUSH4 0xB9A60038 EQ PUSH2 0xD16 JUMPI DUP1 PUSH4 0xC0D4C18C EQ PUSH2 0x77C JUMPI DUP1 PUSH4 0xD4F50453 EQ PUSH2 0x5A3 JUMPI DUP1 PUSH4 0xD6669147 EQ PUSH2 0x512 JUMPI DUP1 PUSH4 0xDDE1BBCF EQ PUSH2 0x4E5 JUMPI DUP1 PUSH4 0xDFE6B5D6 EQ PUSH2 0x28A JUMPI DUP1 PUSH4 0xEC90A7B0 EQ PUSH2 0x1F9 JUMPI DUP1 PUSH4 0xF6FA3B92 EQ PUSH2 0x168 JUMPI PUSH4 0xFECE8772 EQ PUSH2 0xF8 JUMPI PUSH1 0x0 DUP1 REVERT JUMPDEST CALLVALUE PUSH2 0x163 JUMPI PUSH1 0x40 CALLDATASIZE PUSH1 0x3 NOT ADD SLT PUSH2 0x163 JUMPI PUSH2 0x111 PUSH2 0x226C JUMP JUMPDEST PUSH1 0x1 PUSH1 0x1 PUSH1 0xA0 SHL SUB AND PUSH1 0x0 SWAP1 DUP2 MSTORE PUSH1 0x2 PUSH1 0x20 MSTORE PUSH1 0x40 SWAP1 KECCAK256 DUP1 SLOAD PUSH1 0x24 CALLDATALOAD SWAP1 DUP2 LT ISZERO PUSH2 0x163 JUMPI PUSH2 0x145 PUSH2 0x14B SWAP2 PUSH2 0x15F SWAP4 PUSH2 0x22B9 JUMP JUMPDEST SWAP1 PUSH2 0x22D1 JUMP JUMPDEST PUSH1 0x40 MLOAD SWAP2 DUP3 SWAP2 PUSH1 0x20 DUP4 MSTORE PUSH1 0x20 DUP4 ADD SWAP1 PUSH2 0x216F JUMP JUMPDEST SUB SWAP1 RETURN JUMPDEST PUSH1 0x0 DUP1 REVERT JUMPDEST CALLVALUE PUSH2 0x163 JUMPI PUSH1 0x20 DUP1 PUSH1 0x3 NOT CALLDATASIZE ADD SLT PUSH2 0x163 JUMPI PUSH1 0x1 PUSH1 0x1 PUSH1 0xA0 SHL SUB PUSH2 0x18A PUSH2 0x226C JUMP JUMPDEST AND PUSH1 0x0 MSTORE PUSH1 0x3 DUP2 MSTORE PUSH1 0x40 PUSH1 0x0 KECCAK256 SWAP1 DUP2 SLOAD PUSH2 0x1A3 DUP2 PUSH2 0x2610 JUMP JUMPDEST SWAP3 PUSH2 0x1B1 PUSH1 0x40 MLOAD SWAP5 DUP6 PUSH2 0x1FF5 JUMP JUMPDEST DUP2 DUP5 MSTORE PUSH1 0x0 SWAP1 DUP2 MSTORE DUP3 DUP2 KECCAK256 DUP4 DUP1 DUP7 ADD JUMPDEST DUP5 DUP5 LT PUSH2 0x1DB JUMPI PUSH1 0x40 MLOAD DUP3 DUP2 MSTORE DUP1 PUSH2 0x15F DUP2 DUP6 ADD DUP11 PUSH2 0x2210 JUMP JUMPDEST PUSH1 0x1 SWAP2 DUP3 SWAP2 PUSH2 0x1E9 DUP6 PUSH2 0x20C9 JUMP JUMPDEST DUP2 MSTORE ADD SWAP3 ADD SWAP3 ADD SWAP2 SWAP1 DUP5 SWAP1 PUSH2 0x1C1 JUMP JUMPDEST CALLVALUE PUSH2 0x163 JUMPI PUSH1 0x20 DUP1 PUSH1 0x3 NOT CALLDATASIZE ADD SLT PUSH2 0x163 JUMPI PUSH1 0x1 PUSH1 0x1 PUSH1 0xA0 SHL SUB PUSH2 0x21B PUSH2 0x226C JUMP JUMPDEST AND PUSH1 0x0 MSTORE PUSH1 0x2 DUP2 MSTORE PUSH1 0x40 PUSH1 0x0 KECCAK256 SWAP1 DUP2 SLOAD PUSH2 0x234 DUP2 PUSH2 0x2610 JUMP JUMPDEST SWAP3 PUSH2 0x242 PUSH1 0x40 MLOAD SWAP5 DUP6 PUSH2 0x1FF5 JUMP JUMPDEST DUP2 DUP5 MSTORE PUSH1 0x0 SWAP1 DUP2 MSTORE DUP3 DUP2 KECCAK256 DUP4 DUP1 DUP7 ADD JUMPDEST DUP5 DUP5 LT PUSH2 0x26C JUMPI PUSH1 0x40 MLOAD DUP3 DUP2 MSTORE DUP1 PUSH2 0x15F DUP2 DUP6 ADD DUP11 PUSH2 0x2210 JUMP JUMPDEST PUSH1 0x1 SWAP2 DUP3 SWAP2 PUSH2 0x27A DUP6 PUSH2 0x20C9 JUMP JUMPDEST DUP2 MSTORE ADD SWAP3 ADD SWAP3 ADD SWAP2 SWAP1 DUP5 SWAP1 PUSH2 0x252 JUMP JUMPDEST CALLVALUE PUSH2 0x163 JUMPI PUSH1 0x0 CALLDATASIZE PUSH1 0x3 NOT ADD SLT PUSH2 0x163 JUMPI PUSH1 0x5 DUP1 SLOAD PUSH1 0x0 SWAP1 DUP2 SWAP1 DUP2 JUMPDEST DUP2 DUP2 LT PUSH2 0x2CF JUMPI PUSH1 0x80 DUP5 DUP5 PUSH1 0x6 SLOAD SWAP2 PUSH1 0x7 SLOAD PUSH1 0x40 MLOAD SWAP4 DUP5 MSTORE PUSH1 0x20 DUP5 ADD MSTORE PUSH1 0x40 DUP4 ADD MSTORE PUSH1 0x60 DUP3 ADD MSTORE RETURN JUMPDEST PUSH2 0x2D8 DUP2 PUSH2 0x2282 JUMP JUMPDEST POP SWAP4 PUSH1 0x40 MLOAD DUP1 PUSH1 0x0 DUP8 SLOAD SWAP8 PUSH2 0x2EC DUP10 PUSH2 0x208F JUMP JUMPDEST SWAP1 PUSH1 0x1 SWAP10 DUP11 DUP2 AND SWAP1 DUP2 PUSH1 0x0 EQ PUSH2 0x4CE JUMPI POP PUSH1 0x1 EQ PUSH2 0x494 JUMPI JUMPDEST POP POP PUSH1 0x0 DUP2 MSTORE PUSH1 0x20 SWAP3 DUP4 SWAP2 SUB ADD SWAP1 KECCAK256 SWAP1 PUSH2 0x337 PUSH1 0x40 MLOAD SWAP8 PUSH2 0x325 DUP10 PUSH2 0x1FBE JUMP JUMPDEST PUSH2 0x32E DUP5 PUSH2 0x20C9 JUMP JUMPDEST DUP10 MSTORE DUP4 ADD PUSH2 0x20C9 JUMP JUMPDEST DUP2 DUP9 ADD MSTORE PUSH1 0x2 DUP3 ADD SLOAD SWAP1 PUSH1 0x40 DUP9 ADD SWAP2 DUP3 MSTORE PUSH1 0x3 DUP4 ADD SLOAD PUSH1 0x60 DUP10 ADD MSTORE PUSH1 0x4 DUP4 ADD SLOAD PUSH1 0x80 DUP10 ADD SWAP1 DUP2 MSTORE PUSH2 0x369 DUP11 DUP6 ADD PUSH2 0x20C9 JUMP JUMPDEST PUSH1 0xA0 DUP11 ADD MSTORE PUSH2 0x37A PUSH1 0x6 DUP6 ADD PUSH2 0x20C9 JUMP JUMPDEST PUSH1 0xC0 DUP11 ADD MSTORE PUSH2 0x38B PUSH1 0x7 DUP6 ADD PUSH2 0x20C9 JUMP JUMPDEST SWAP9 PUSH1 0xE0 DUP2 ADD SWAP10 DUP11 MSTORE PUSH2 0x1A0 PUSH1 0xFF PUSH1 0xD PUSH1 0x1 DUP1 PUSH1 0xA0 SHL SUB SWAP8 DUP9 PUSH1 0x8 DUP3 ADD SLOAD AND PUSH2 0x100 DUP7 ADD MSTORE PUSH1 0x9 SWAP9 DUP1 DUP11 DUP4 ADD SLOAD AND PUSH2 0x120 DUP8 ADD MSTORE PUSH1 0xA DUP3 ADD SLOAD AND PUSH2 0x140 DUP7 ADD MSTORE PUSH2 0x3D6 PUSH1 0xB DUP3 ADD PUSH2 0x20C9 JUMP JUMPDEST PUSH2 0x160 DUP7 ADD MSTORE PUSH1 0xC DUP2 ADD SLOAD PUSH2 0x180 DUP7 ADD MSTORE ADD SLOAD AND ISZERO ISZERO SWAP2 ADD MSTORE MLOAD SWAP2 MLOAD SWAP2 DUP3 DUP2 MUL SWAP3 DUP2 DUP5 DIV EQ SWAP1 ISZERO OR ISZERO PUSH2 0x47E JUMPI PUSH2 0x43B PUSH9 0x11195B1A5D995C9959 PUSH1 0xBA SHL SWAP3 PUSH32 0x84D438931365E92021ED104A3CCC6EBB11094926F21EBFCBD81AD9746006C510 SWAP6 PUSH2 0x2603 JUMP JUMPDEST SWAP8 MLOAD DUP2 DUP2 MLOAD SWAP2 ADD KECCAK256 SWAP3 PUSH1 0x40 MLOAD SWAP1 PUSH2 0x451 DUP3 PUSH2 0x1FDA JUMP JUMPDEST DUP2 MSTORE ADD MSTORE SUB PUSH2 0x469 JUMPI JUMPDEST PUSH2 0x464 SWAP1 PUSH2 0x249E JUMP JUMPDEST PUSH2 0x2A6 JUMP JUMPDEST SWAP2 PUSH2 0x476 PUSH2 0x464 SWAP2 PUSH2 0x249E JUMP JUMPDEST SWAP3 SWAP1 POP PUSH2 0x45B JUMP JUMPDEST PUSH4 0x4E487B71 PUSH1 0xE0 SHL PUSH1 0x0 MSTORE PUSH1 0x11 PUSH1 0x4 MSTORE PUSH1 0x24 PUSH1 0x0 REVERT JUMPDEST SWAP1 SWAP2 POP PUSH1 0x0 MSTORE PUSH1 0x20 DUP1 PUSH1 0x0 KECCAK256 DUP10 PUSH1 0x0 SWAP2 JUMPDEST DUP5 DUP4 LT PUSH2 0x4B9 JUMPI POP POP POP POP DUP2 ADD DUP10 DUP1 PUSH2 0x305 JUMP JUMPDEST DUP1 SLOAD DUP8 DUP5 ADD MSTORE DUP7 SWAP6 POP SWAP2 DUP4 ADD SWAP2 DUP12 SWAP2 ADD PUSH2 0x4A5 JUMP JUMPDEST PUSH1 0xFF NOT AND DUP6 MSTORE POP POP DUP1 ISZERO ISZERO MUL DUP3 ADD SWAP1 POP DUP10 DUP1 PUSH2 0x305 JUMP JUMPDEST CALLVALUE PUSH2 0x163 JUMPI PUSH1 0x20 CALLDATASIZE PUSH1 0x3 NOT ADD SLT PUSH2 0x163 JUMPI PUSH1 0x4 CALLDATALOAD PUSH1 0x5 SLOAD DUP2 LT ISZERO PUSH2 0x163 JUMPI PUSH2 0x14B PUSH2 0x145 PUSH2 0x15F SWAP3 PUSH2 0x2282 JUMP JUMPDEST CALLVALUE PUSH2 0x163 JUMPI PUSH1 0x20 DUP1 PUSH1 0x3 NOT CALLDATASIZE ADD SLT PUSH2 0x163 JUMPI PUSH1 0x1 PUSH1 0x1 PUSH1 0xA0 SHL SUB PUSH2 0x534 PUSH2 0x226C JUMP JUMPDEST AND PUSH1 0x0 MSTORE PUSH1 0x4 DUP2 MSTORE PUSH1 0x40 PUSH1 0x0 KECCAK256 SWAP1 DUP2 SLOAD PUSH2 0x54D DUP2 PUSH2 0x2610 JUMP JUMPDEST SWAP3 PUSH2 0x55B PUSH1 0x40 MLOAD SWAP5 DUP6 PUSH2 0x1FF5 JUMP JUMPDEST DUP2 DUP5 MSTORE PUSH1 0x0 SWAP1 DUP2 MSTORE DUP3 DUP2 KECCAK256 DUP4 DUP1 DUP7 ADD JUMPDEST DUP5 DUP5 LT PUSH2 0x585 JUMPI PUSH1 0x40 MLOAD DUP3 DUP2 MSTORE DUP1 PUSH2 0x15F DUP2 DUP6 ADD DUP11 PUSH2 0x2210 JUMP JUMPDEST PUSH1 0x1 SWAP2 DUP3 SWAP2 PUSH2 0x593 DUP6 PUSH2 0x20C9 JUMP JUMPDEST DUP2 MSTORE ADD SWAP3 ADD SWAP3 ADD SWAP2 SWAP1 DUP5 SWAP1 PUSH2 0x56B JUMP JUMPDEST CALLVALUE PUSH2 0x163 JUMPI PUSH1 0x20 DUP1 PUSH1 0x3 NOT CALLDATASIZE ADD SLT PUSH2 0x163 JUMPI PUSH1 0x4 CALLDATALOAD PUSH1 0x1 PUSH1 0x1 PUSH1 0x40 SHL SUB DUP2 GT PUSH2 0x163 JUMPI PUSH2 0x5D4 SWAP1 CALLDATASIZE SWAP1 PUSH1 0x4 ADD PUSH2 0x2016 JUMP JUMPDEST SWAP1 DUP1 PUSH2 0x5E9 PUSH1 0x40 MLOAD SWAP4 DUP5 DUP2 MLOAD SWAP4 DUP5 SWAP3 ADD PUSH2 0x206C JUMP JUMPDEST DUP3 ADD SWAP2 DUP2 DUP2 PUSH1 0x1 SWAP5 DUP6 DUP2 MSTORE SUB ADD SWAP1 KECCAK256 DUP1 SLOAD SWAP2 PUSH2 0x604 DUP4 PUSH2 0x2610 JUMP JUMPDEST SWAP3 PUSH2 0x612 PUSH1 0x40 MLOAD SWAP5 DUP6 PUSH2 0x1FF5 JUMP JUMPDEST DUP1 DUP5 MSTORE DUP2 DUP5 ADD DUP1 SWAP4 PUSH1 0x0 MSTORE DUP3 PUSH1 0x0 KECCAK256 PUSH1 0x0 SWAP2 JUMPDEST DUP4 DUP4 LT PUSH2 0x6F8 JUMPI POP POP POP POP PUSH1 0x40 MLOAD SWAP4 DUP5 SWAP4 DUP3 DUP6 ADD SWAP1 DUP4 DUP7 MSTORE MLOAD DUP1 SWAP2 MSTORE PUSH1 0x40 DUP6 ADD SWAP3 PUSH1 0x40 DUP3 PUSH1 0x5 SHL DUP8 ADD ADD SWAP5 SWAP4 PUSH1 0x0 SWAP1 JUMPDEST DUP4 DUP3 LT PUSH2 0x662 JUMPI DUP8 DUP8 SUB DUP9 RETURN JUMPDEST SWAP2 DUP5 SWAP7 DUP2 SWAP6 SWAP3 SWAP5 SWAP7 SWAP9 POP DUP2 SWAP1 PUSH1 0x3F NOT DUP12 DUP3 SUB ADD DUP6 MSTORE DUP10 MLOAD SWAP1 PUSH2 0x6D2 PUSH2 0x6B5 PUSH2 0x693 DUP5 MLOAD PUSH1 0xE0 DUP6 MSTORE PUSH1 0xE0 DUP6 ADD SWAP1 PUSH2 0x216F JUMP JUMPDEST PUSH1 0x1 DUP1 PUSH1 0xA0 SHL SUB DUP7 DUP7 ADD MLOAD AND DUP7 DUP6 ADD MSTORE PUSH1 0x40 DUP6 ADD MLOAD DUP5 DUP3 SUB PUSH1 0x40 DUP7 ADD MSTORE PUSH2 0x216F JUMP JUMPDEST PUSH1 0x60 DUP1 DUP6 ADD MLOAD SWAP1 DUP5 ADD MSTORE PUSH1 0x80 DUP1 DUP6 ADD MLOAD SWAP1 DUP5 DUP4 SUB SWAP1 DUP6 ADD MSTORE PUSH2 0x216F JUMP JUMPDEST SWAP2 PUSH1 0xA0 DUP1 DUP3 ADD MLOAD SWAP1 DUP4 ADD MSTORE PUSH1 0xC0 DUP1 SWAP2 ADD MLOAD SWAP2 ADD MSTORE SWAP9 ADD SWAP3 ADD SWAP3 ADD DUP8 SWAP7 SWAP6 SWAP4 SWAP2 SWAP5 SWAP3 PUSH2 0x655 JUMP JUMPDEST SWAP7 PUSH1 0x7 DUP6 DUP3 SWAP8 SWAP9 SWAP7 SWAP10 PUSH1 0x40 MLOAD PUSH2 0x70D DUP2 PUSH2 0x1F8D JUMP JUMPDEST PUSH2 0x716 DUP7 PUSH2 0x20C9 JUMP JUMPDEST DUP2 MSTORE DUP6 DUP6 ADD SLOAD PUSH1 0x1 PUSH1 0x1 PUSH1 0xA0 SHL SUB AND DUP4 DUP3 ADD MSTORE PUSH2 0x735 PUSH1 0x2 DUP8 ADD PUSH2 0x20C9 JUMP JUMPDEST PUSH1 0x40 DUP3 ADD MSTORE PUSH1 0x3 DUP7 ADD SLOAD PUSH1 0x60 DUP3 ADD MSTORE PUSH2 0x750 PUSH1 0x4 DUP8 ADD PUSH2 0x20C9 JUMP JUMPDEST PUSH1 0x80 DUP3 ADD MSTORE PUSH1 0x5 DUP7 ADD SLOAD PUSH1 0xA0 DUP3 ADD MSTORE PUSH1 0x6 DUP7 ADD SLOAD PUSH1 0xC0 DUP3 ADD MSTORE DUP2 MSTORE ADD SWAP3 ADD SWAP3 ADD SWAP2 SWAP1 SWAP7 SWAP4 SWAP6 SWAP5 SWAP7 PUSH2 0x625 JUMP JUMPDEST CALLVALUE PUSH2 0x163 JUMPI PUSH1 0xE0 CALLDATASIZE PUSH1 0x3 NOT ADD SLT PUSH2 0x163 JUMPI PUSH1 0x1 PUSH1 0x1 PUSH1 0x40 SHL SUB PUSH1 0x4 CALLDATALOAD DUP2 DUP2 GT PUSH2 0x163 JUMPI PUSH2 0x7AD SWAP1 CALLDATASIZE SWAP1 PUSH1 0x4 ADD PUSH2 0x2016 JUMP JUMPDEST PUSH1 0x24 SWAP2 DUP3 CALLDATALOAD DUP2 DUP2 GT PUSH2 0x163 JUMPI PUSH2 0x7C7 SWAP1 CALLDATASIZE SWAP1 PUSH1 0x4 ADD PUSH2 0x2016 JUMP JUMPDEST SWAP3 PUSH1 0x84 CALLDATALOAD DUP3 DUP2 GT PUSH2 0x163 JUMPI PUSH2 0x7E0 SWAP1 CALLDATASIZE SWAP1 PUSH1 0x4 ADD PUSH2 0x2016 JUMP JUMPDEST SWAP1 PUSH1 0xA4 CALLDATALOAD DUP4 DUP2 GT PUSH2 0x163 JUMPI PUSH2 0x7F9 SWAP1 CALLDATASIZE SWAP1 PUSH1 0x4 ADD PUSH2 0x2016 JUMP JUMPDEST SWAP3 PUSH1 0xC4 CALLDATALOAD SWAP1 DUP2 GT PUSH2 0x163 JUMPI PUSH2 0x812 SWAP1 CALLDATASIZE SWAP1 PUSH1 0x4 ADD PUSH2 0x2016 JUMP JUMPDEST SWAP3 PUSH1 0xFF PUSH1 0xD PUSH1 0x40 MLOAD PUSH1 0x20 DUP2 DUP2 PUSH2 0x82E DUP12 DUP4 DUP2 MLOAD SWAP4 DUP5 SWAP3 ADD PUSH2 0x206C JUMP JUMPDEST DUP2 ADD PUSH1 0x0 DUP2 MSTORE SUB ADD SWAP1 KECCAK256 ADD SLOAD AND PUSH2 0xCC6 JUMPI PUSH1 0x44 CALLDATALOAD SWAP2 DUP3 ISZERO PUSH2 0xC82 JUMPI PUSH1 0x64 CALLDATALOAD SWAP4 DUP5 ISZERO PUSH2 0xC34 JUMPI DUP8 MLOAD ISZERO PUSH2 0xBF0 JUMPI PUSH1 0x40 MLOAD SWAP1 PUSH2 0x867 DUP3 PUSH2 0x1FBE JUMP JUMPDEST DUP8 DUP3 MSTORE DUP9 PUSH1 0x20 DUP4 ADD MSTORE DUP5 PUSH1 0x40 DUP4 ADD MSTORE DUP6 PUSH1 0x60 DUP4 ADD MSTORE DUP6 PUSH1 0x80 DUP4 ADD MSTORE PUSH1 0xA0 DUP3 ADD MSTORE DUP3 PUSH1 0xC0 DUP3 ADD MSTORE PUSH2 0x895 PUSH2 0x22F5 JUMP JUMPDEST PUSH1 0xE0 DUP3 ADD MSTORE CALLER PUSH2 0x100 DUP3 ADD MSTORE PUSH1 0x0 PUSH2 0x120 DUP3 ADD MSTORE PUSH1 0x0 PUSH2 0x140 DUP3 ADD MSTORE DUP6 PUSH2 0x160 DUP3 ADD MSTORE TIMESTAMP PUSH2 0x180 DUP3 ADD MSTORE PUSH1 0x1 PUSH2 0x1A0 DUP3 ADD MSTORE PUSH2 0x1A0 PUSH1 0xD PUSH1 0x40 MLOAD PUSH1 0x20 DUP2 DUP2 PUSH2 0x8E3 DUP14 DUP4 DUP2 MLOAD SWAP4 DUP5 SWAP3 ADD PUSH2 0x206C JUMP JUMPDEST DUP2 ADD PUSH1 0x0 DUP2 MSTORE SUB ADD SWAP1 KECCAK256 PUSH2 0x8F8 DUP5 MLOAD DUP3 PUSH2 0x236D JUMP JUMPDEST PUSH2 0x909 PUSH1 0x20 DUP6 ADD MLOAD PUSH1 0x1 DUP4 ADD PUSH2 0x236D JUMP JUMPDEST PUSH1 0x40 DUP5 ADD MLOAD PUSH1 0x2 DUP3 ADD SSTORE PUSH1 0x60 DUP5 ADD MLOAD PUSH1 0x3 DUP3 ADD SSTORE PUSH1 0x80 DUP5 ADD MLOAD PUSH1 0x4 DUP3 ADD SSTORE PUSH2 0x938 PUSH1 0xA0 DUP6 ADD MLOAD PUSH1 0x5 DUP4 ADD PUSH2 0x236D JUMP JUMPDEST PUSH2 0x949 PUSH1 0xC0 DUP6 ADD MLOAD PUSH1 0x6 DUP4 ADD PUSH2 0x236D JUMP JUMPDEST PUSH2 0x95A PUSH1 0xE0 DUP6 ADD MLOAD PUSH1 0x7 DUP4 ADD PUSH2 0x236D JUMP JUMPDEST PUSH1 0x8 DUP2 ADD PUSH1 0x1 DUP1 PUSH1 0xA0 SHL SUB SWAP1 DUP2 PUSH2 0x100 DUP8 ADD MLOAD AND SWAP1 PUSH1 0x1 PUSH1 0x1 PUSH1 0x60 SHL SUB PUSH1 0xA0 SHL SWAP2 DUP3 DUP3 SLOAD AND OR SWAP1 SSTORE PUSH1 0x9 DUP4 ADD DUP3 PUSH2 0x120 DUP9 ADD MLOAD AND DUP3 DUP3 SLOAD AND OR SWAP1 SSTORE PUSH1 0xA DUP4 ADD SWAP2 PUSH2 0x140 DUP8 ADD MLOAD AND SWAP1 DUP3 SLOAD AND OR SWAP1 SSTORE PUSH2 0x9BA PUSH2 0x160 DUP6 ADD MLOAD PUSH1 0xB DUP4 ADD PUSH2 0x236D JUMP JUMPDEST PUSH2 0x180 DUP5 ADD MLOAD PUSH1 0xC DUP3 ADD SSTORE ADD SWAP2 ADD MLOAD ISZERO ISZERO PUSH1 0xFF DUP1 NOT DUP4 SLOAD AND SWAP2 AND OR SWAP1 SSTORE PUSH1 0x5 SLOAD PUSH1 0x1 PUSH1 0x40 SHL DUP2 LT ISZERO PUSH2 0xBDB JUMPI DUP1 PUSH1 0x1 PUSH2 0x9F6 SWAP3 ADD PUSH1 0x5 SSTORE PUSH2 0x2282 JUMP JUMPDEST SWAP2 SWAP1 SWAP2 PUSH2 0xBC7 JUMPI POP SWAP6 PUSH2 0xB7D PUSH2 0xB6E PUSH32 0xD2D27CABE76B585241062644651E40BF6E7D0EEE756689BC27A031CA732B4656 SWAP5 PUSH2 0xB56 SWAP5 PUSH2 0xA38 DUP11 PUSH2 0xB85 SWAP13 PUSH2 0x236D JUMP JUMPDEST CALLER PUSH1 0x0 MSTORE PUSH1 0x2 PUSH1 0x20 MSTORE PUSH2 0xA4F DUP11 PUSH1 0x40 PUSH1 0x0 KECCAK256 PUSH2 0x2471 JUMP JUMPDEST PUSH2 0xA5A PUSH1 0x6 SLOAD PUSH2 0x249E JUMP JUMPDEST PUSH1 0x6 SSTORE PUSH2 0xB2A DUP10 PUSH2 0xA7A PUSH1 0x20 DUP14 DUP2 PUSH1 0x40 MLOAD SWAP4 DUP3 DUP6 DUP1 SWAP5 MLOAD SWAP4 DUP5 SWAP3 ADD PUSH2 0x206C JUMP JUMPDEST DUP2 ADD PUSH1 0x1 DUP2 MSTORE SUB ADD SWAP1 KECCAK256 PUSH2 0xAC8 PUSH1 0x2E PUSH1 0x40 MLOAD DUP1 SWAP5 PUSH14 0x2932B3B4B9BA32B932B21030BA1 PUSH1 0x95 SHL PUSH1 0x20 DUP4 ADD MSTORE PUSH2 0xAB8 DUP2 MLOAD DUP1 SWAP3 PUSH1 0x20 DUP7 DUP7 ADD SWAP2 ADD PUSH2 0x206C JUMP JUMPDEST DUP2 ADD SUB PUSH1 0xE DUP2 ADD DUP6 MSTORE ADD DUP4 PUSH2 0x1FF5 JUMP JUMPDEST PUSH1 0x40 MLOAD SWAP2 PUSH2 0xAD5 DUP4 PUSH2 0x1F8D JUMP JUMPDEST DUP14 DUP4 MSTORE CALLER PUSH1 0x20 DUP5 ADD MSTORE PUSH1 0x40 MLOAD PUSH2 0xAEA DUP2 PUSH2 0x1FDA JUMP JUMPDEST PUSH1 0x12 DUP2 MSTORE PUSH18 0x141C9BD91D58DD08149959DA5CDD195C9959 PUSH1 0x72 SHL PUSH1 0x20 DUP3 ADD MSTORE PUSH1 0x40 DUP5 ADD MSTORE DUP12 PUSH1 0x60 DUP5 ADD MSTORE PUSH1 0x80 DUP4 ADD MSTORE TIMESTAMP PUSH1 0xA0 DUP4 ADD MSTORE NUMBER PUSH1 0xC0 DUP4 ADD MSTORE PUSH2 0x24AD JUMP JUMPDEST PUSH2 0xB35 PUSH1 0x7 SLOAD PUSH2 0x249E JUMP JUMPDEST PUSH1 0x7 SSTORE PUSH2 0xB41 DUP11 PUSH2 0x2540 JUMP JUMPDEST SWAP8 PUSH1 0x40 MLOAD SWAP7 DUP8 SWAP7 PUSH1 0xA0 DUP9 MSTORE PUSH1 0xA0 DUP9 ADD SWAP1 PUSH2 0x216F JUMP JUMPDEST SWAP3 PUSH1 0x20 DUP8 ADD MSTORE PUSH1 0x40 DUP7 ADD MSTORE DUP5 DUP3 SUB PUSH1 0x60 DUP7 ADD MSTORE PUSH2 0x216F JUMP JUMPDEST DUP3 DUP2 SUB PUSH1 0x80 DUP5 ADD MSTORE CALLER SWAP7 PUSH2 0x216F JUMP JUMPDEST SUB SWAP1 LOG3 PUSH2 0x2540 JUMP JUMPDEST PUSH1 0x0 PUSH1 0x40 MLOAD SWAP2 PUSH1 0x40 DUP4 MSTORE PUSH1 0xC PUSH1 0x40 DUP5 ADD MSTORE PUSH12 0x2932B3B4B9BA3930BA34B7B7 PUSH1 0xA1 SHL PUSH1 0x60 DUP5 ADD MSTORE TIMESTAMP PUSH1 0x20 DUP5 ADD MSTORE PUSH1 0x0 DUP1 MLOAD PUSH1 0x20 PUSH2 0x263C DUP4 CODECOPY DUP2 MLOAD SWAP2 MSTORE PUSH1 0x80 CALLER SWAP5 LOG4 STOP JUMPDEST PUSH4 0x4E487B71 PUSH1 0xE0 SHL PUSH1 0x0 MSTORE PUSH1 0x0 PUSH1 0x4 MSTORE PUSH1 0x0 REVERT JUMPDEST POP PUSH4 0x4E487B71 PUSH1 0xE0 SHL PUSH1 0x0 SWAP1 DUP2 MSTORE PUSH1 0x41 PUSH1 0x4 MSTORE REVERT JUMPDEST PUSH1 0x40 MLOAD PUSH3 0x461BCD PUSH1 0xE5 SHL DUP2 MSTORE PUSH1 0x20 PUSH1 0x4 DUP3 ADD MSTORE PUSH1 0x1C DUP2 DUP5 ADD MSTORE PUSH32 0x50726F64756374206E616D652063616E6E6F7420626520656D70747900000000 PUSH1 0x44 DUP3 ADD MSTORE PUSH1 0x64 SWAP1 REVERT JUMPDEST PUSH1 0x40 MLOAD PUSH3 0x461BCD PUSH1 0xE5 SHL DUP2 MSTORE PUSH1 0x20 PUSH1 0x4 DUP3 ADD MSTORE PUSH1 0x21 DUP2 DUP5 ADD MSTORE PUSH32 0x42617365207072696365206D7573742062652067726561746572207468616E20 PUSH1 0x44 DUP3 ADD MSTORE PUSH1 0x3 PUSH1 0xFC SHL PUSH1 0x64 DUP3 ADD MSTORE PUSH1 0x84 SWAP1 REVERT JUMPDEST PUSH1 0x64 SWAP1 PUSH1 0x1F PUSH1 0x40 MLOAD SWAP2 PUSH3 0x461BCD PUSH1 0xE5 SHL DUP4 MSTORE PUSH1 0x20 PUSH1 0x4 DUP5 ADD MSTORE DUP3 ADD MSTORE PUSH32 0x5175616E74697479206D7573742062652067726561746572207468616E203000 PUSH1 0x44 DUP3 ADD MSTORE REVERT JUMPDEST PUSH1 0x40 MLOAD PUSH3 0x461BCD PUSH1 0xE5 SHL DUP2 MSTORE PUSH1 0x20 PUSH1 0x4 DUP3 ADD MSTORE PUSH1 0x23 DUP2 DUP5 ADD MSTORE PUSH32 0x50726F647563742077697468207468697320494420616C726561647920657869 PUSH1 0x44 DUP3 ADD MSTORE PUSH3 0x737473 PUSH1 0xE8 SHL PUSH1 0x64 DUP3 ADD MSTORE PUSH1 0x84 SWAP1 REVERT JUMPDEST CALLVALUE PUSH2 0x163 JUMPI PUSH1 0x0 CALLDATASIZE PUSH1 0x3 NOT ADD SLT PUSH2 0x163 JUMPI PUSH1 0x20 PUSH1 0x7 SLOAD PUSH1 0x40 MLOAD SWAP1 DUP2 MSTORE RETURN JUMPDEST CALLVALUE PUSH2 0x163 JUMPI PUSH1 0x40 CALLDATASIZE PUSH1 0x3 NOT ADD SLT PUSH2 0x163 JUMPI PUSH2 0xD4D PUSH2 0x226C JUMP JUMPDEST PUSH1 0x1 PUSH1 0x1 PUSH1 0xA0 SHL SUB AND PUSH1 0x0 SWAP1 DUP2 MSTORE PUSH1 0x3 PUSH1 0x20 MSTORE PUSH1 0x40 SWAP1 KECCAK256 DUP1 SLOAD PUSH1 0x24 CALLDATALOAD SWAP1 DUP2 LT ISZERO PUSH2 0x163 JUMPI PUSH2 0x145 PUSH2 0x14B SWAP2 PUSH2 0x15F SWAP4 PUSH2 0x22B9 JUMP JUMPDEST CALLVALUE PUSH2 0x163 JUMPI PUSH1 0x40 CALLDATASIZE PUSH1 0x3 NOT ADD SLT PUSH2 0x163 JUMPI PUSH2 0xD9A PUSH2 0x226C JUMP JUMPDEST PUSH1 0x1 PUSH1 0x1 PUSH1 0xA0 SHL SUB AND PUSH1 0x0 SWAP1 DUP2 MSTORE PUSH1 0x4 PUSH1 0x20 MSTORE PUSH1 0x40 SWAP1 KECCAK256 DUP1 SLOAD PUSH1 0x24 CALLDATALOAD SWAP1 DUP2 LT ISZERO PUSH2 0x163 JUMPI PUSH2 0x145 PUSH2 0x14B SWAP2 PUSH2 0x15F SWAP4 PUSH2 0x22B9 JUMP JUMPDEST CALLVALUE PUSH2 0x163 JUMPI PUSH1 0x0 CALLDATASIZE PUSH1 0x3 NOT ADD SLT PUSH2 0x163 JUMPI PUSH1 0x20 PUSH1 0x6 SLOAD PUSH1 0x40 MLOAD SWAP1 DUP2 MSTORE RETURN JUMPDEST CALLVALUE PUSH2 0x163 JUMPI PUSH1 0x20 DUP1 PUSH1 0x3 NOT CALLDATASIZE ADD SLT PUSH2 0x163 JUMPI PUSH1 0x4 CALLDATALOAD PUSH1 0x1 PUSH1 0x1 PUSH1 0x40 SHL SUB DUP2 GT PUSH2 0x163 JUMPI PUSH2 0xE1D SWAP1 CALLDATASIZE SWAP1 PUSH1 0x4 ADD PUSH2 0x2016 JUMP JUMPDEST SWAP1 PUSH1 0x40 MLOAD SWAP2 PUSH2 0xE4F PUSH1 0xFF PUSH1 0xD DUP4 MLOAD SWAP6 DUP6 DUP2 DUP2 DUP8 ADD SWAP9 PUSH2 0xE3D DUP2 DUP4 DUP13 PUSH2 0x206C JUMP JUMPDEST DUP2 ADD PUSH1 0x0 DUP2 MSTORE SUB ADD SWAP1 KECCAK256 ADD SLOAD AND PUSH2 0x2560 JUMP JUMPDEST PUSH2 0xE61 PUSH1 0x40 MLOAD SWAP4 DUP5 SWAP3 MLOAD SWAP3 DUP4 SWAP2 PUSH2 0x206C JUMP JUMPDEST DUP3 ADD SWAP2 DUP2 DUP2 PUSH1 0x1 SWAP5 DUP6 DUP2 MSTORE SUB ADD SWAP1 KECCAK256 DUP1 SLOAD PUSH2 0xE7B DUP2 PUSH2 0x2610 JUMP JUMPDEST SWAP2 PUSH2 0xE89 PUSH1 0x40 MLOAD SWAP4 DUP5 PUSH2 0x1FF5 JUMP JUMPDEST DUP2 DUP4 MSTORE PUSH1 0x0 SWAP1 DUP2 MSTORE DUP4 DUP2 KECCAK256 DUP5 DUP5 ADD JUMPDEST DUP4 DUP4 LT PUSH2 0x1057 JUMPI DUP5 MLOAD DUP6 DUP9 DUP9 PUSH2 0xEAD DUP5 PUSH2 0x2610 JUMP JUMPDEST SWAP3 PUSH2 0xEBB PUSH1 0x40 MLOAD SWAP5 DUP6 PUSH2 0x1FF5 JUMP JUMPDEST DUP5 DUP5 MSTORE PUSH2 0xEC7 DUP6 PUSH2 0x2610 JUMP JUMPDEST PUSH1 0x1F NOT SWAP6 DUP6 DUP5 ADD SWAP2 DUP8 ADD CALLDATASIZE DUP4 CALLDATACOPY PUSH2 0xEDD DUP2 PUSH2 0x2610 JUMP JUMPDEST SWAP1 PUSH2 0xEEB PUSH1 0x40 MLOAD SWAP3 DUP4 PUSH2 0x1FF5 JUMP JUMPDEST DUP1 DUP3 MSTORE DUP8 PUSH2 0xEF8 DUP3 PUSH2 0x2610 JUMP JUMPDEST ADD PUSH1 0x0 JUMPDEST DUP2 DUP2 LT PUSH2 0x1048 JUMPI POP POP PUSH2 0xF0E DUP2 PUSH2 0x2610 JUMP JUMPDEST SWAP4 PUSH2 0xF1C PUSH1 0x40 MLOAD SWAP6 DUP7 PUSH2 0x1FF5 JUMP JUMPDEST DUP2 DUP6 MSTORE PUSH2 0xF28 DUP3 PUSH2 0x2610 JUMP JUMPDEST DUP6 DUP8 ADD SWAP10 ADD CALLDATASIZE DUP11 CALLDATACOPY PUSH1 0x0 JUMPDEST DUP3 DUP2 LT PUSH2 0xFCD JUMPI POP POP PUSH1 0x40 MLOAD SWAP7 PUSH1 0xA0 DUP9 ADD SWAP2 DUP8 DUP10 MSTORE DUP7 DUP10 ADD MSTORE PUSH1 0xA0 PUSH1 0x40 DUP10 ADD MSTORE MLOAD DUP1 SWAP2 MSTORE PUSH1 0xC0 DUP8 ADD SWAP3 SWAP1 PUSH1 0x0 JUMPDEST DUP2 DUP2 LT PUSH2 0xFB1 JUMPI POP POP POP DUP2 PUSH2 0xF7D SWAP2 DUP8 DUP7 SWAP5 SUB PUSH1 0x60 DUP10 ADD MSTORE PUSH2 0x2210 JUMP JUMPDEST SWAP2 DUP6 DUP4 SUB PUSH1 0x80 DUP8 ADD MSTORE MLOAD SWAP2 DUP3 DUP2 MSTORE ADD SWAP5 SWAP2 PUSH1 0x0 JUMPDEST DUP3 DUP2 LT PUSH2 0xF9E JUMPI DUP6 DUP8 SUB DUP7 RETURN JUMPDEST DUP4 MLOAD DUP8 MSTORE SWAP6 DUP2 ADD SWAP6 SWAP3 DUP2 ADD SWAP3 DUP5 ADD PUSH2 0xF91 JUMP JUMPDEST DUP3 MLOAD PUSH1 0x1 PUSH1 0x1 PUSH1 0xA0 SHL SUB AND DUP6 MSTORE SWAP4 DUP7 ADD SWAP4 SWAP2 DUP7 ADD SWAP2 DUP8 ADD PUSH2 0xF60 JUMP JUMPDEST SWAP7 SWAP9 SWAP7 SWAP5 SWAP6 SWAP5 PUSH2 0x103D SWAP1 PUSH1 0x1 PUSH1 0x1 PUSH1 0xA0 SHL SUB DUP8 PUSH2 0xFEA DUP4 DUP7 PUSH2 0x2627 JUMP JUMPDEST MLOAD ADD MLOAD AND PUSH2 0xFF8 DUP3 DUP13 PUSH2 0x2627 JUMP JUMPDEST MSTORE PUSH1 0x40 PUSH2 0x1005 DUP3 DUP6 PUSH2 0x2627 JUMP JUMPDEST MLOAD ADD MLOAD PUSH2 0x1012 DUP3 DUP8 PUSH2 0x2627 JUMP JUMPDEST MSTORE PUSH2 0x101D DUP2 DUP7 PUSH2 0x2627 JUMP JUMPDEST POP PUSH1 0xA0 PUSH2 0x102A DUP3 DUP6 PUSH2 0x2627 JUMP JUMPDEST MLOAD ADD MLOAD PUSH2 0x1037 DUP3 DUP11 PUSH2 0x2627 JUMP JUMPDEST MSTORE PUSH2 0x249E JUMP JUMPDEST SWAP9 SWAP7 SWAP9 SWAP6 SWAP5 SWAP6 PUSH2 0xF33 JUMP JUMPDEST PUSH1 0x60 DUP5 DUP3 ADD DUP9 ADD MSTORE DUP7 ADD PUSH2 0xEFC JUMP JUMPDEST PUSH1 0x7 DUP7 DUP9 SWAP3 PUSH1 0x40 MLOAD PUSH2 0x1068 DUP2 PUSH2 0x1F8D JUMP JUMPDEST PUSH2 0x1071 DUP7 PUSH2 0x20C9 JUMP JUMPDEST DUP2 MSTORE DUP6 DUP6 ADD SLOAD PUSH1 0x1 PUSH1 0x1 PUSH1 0xA0 SHL SUB AND DUP4 DUP3 ADD MSTORE PUSH2 0x1090 PUSH1 0x2 DUP8 ADD PUSH2 0x20C9 JUMP JUMPDEST PUSH1 0x40 DUP3 ADD MSTORE PUSH1 0x3 DUP7 ADD SLOAD PUSH1 0x60 DUP3 ADD MSTORE PUSH2 0x10AB PUSH1 0x4 DUP8 ADD PUSH2 0x20C9 JUMP JUMPDEST PUSH1 0x80 DUP3 ADD MSTORE PUSH1 0x5 DUP7 ADD SLOAD PUSH1 0xA0 DUP3 ADD MSTORE PUSH1 0x6 DUP7 ADD SLOAD PUSH1 0xC0 DUP3 ADD MSTORE DUP2 MSTORE ADD SWAP3 ADD SWAP3 ADD SWAP2 SWAP1 PUSH2 0xE98 JUMP JUMPDEST CALLVALUE PUSH2 0x163 JUMPI PUSH1 0x20 CALLDATASIZE PUSH1 0x3 NOT ADD SLT PUSH2 0x163 JUMPI PUSH1 0x4 CALLDATALOAD PUSH1 0x1 PUSH1 0x1 PUSH1 0x40 SHL SUB DUP2 GT PUSH2 0x163 JUMPI PUSH1 0x20 PUSH2 0x1107 PUSH2 0x119F SWAP3 CALLDATASIZE SWAP1 PUSH1 0x4 ADD PUSH2 0x2016 JUMP JUMPDEST PUSH1 0x0 PUSH2 0x1A0 PUSH1 0x40 MLOAD PUSH2 0x1118 DUP2 PUSH2 0x1FBE JUMP JUMPDEST PUSH1 0x60 DUP2 MSTORE PUSH1 0x60 DUP6 DUP3 ADD MSTORE DUP3 PUSH1 0x40 DUP3 ADD MSTORE DUP3 PUSH1 0x60 DUP3 ADD MSTORE DUP3 PUSH1 0x80 DUP3 ADD MSTORE PUSH1 0x60 PUSH1 0xA0 DUP3 ADD MSTORE PUSH1 0x60 PUSH1 0xC0 DUP3 ADD MSTORE PUSH1 0x60 PUSH1 0xE0 DUP3 ADD MSTORE DUP3 PUSH2 0x100 DUP3 ADD MSTORE DUP3 PUSH2 0x120 DUP3 ADD MSTORE DUP3 PUSH2 0x140 DUP3 ADD MSTORE PUSH1 0x60 PUSH2 0x160 DUP3 ADD MSTORE DUP3 PUSH2 0x180 DUP3 ADD MSTORE ADD MSTORE PUSH1 0x40 MLOAD SWAP1 PUSH2 0x118E PUSH1 0xFF PUSH1 0xD DUP4 MLOAD SWAP5 DUP7 DUP2 DUP2 DUP8 ADD SWAP8 PUSH2 0xE3D DUP2 DUP4 DUP12 PUSH2 0x206C JUMP JUMPDEST PUSH1 0x40 MLOAD SWAP4 DUP5 SWAP3 DUP4 SWAP3 MLOAD SWAP3 DUP4 SWAP2 PUSH2 0x206C JUMP JUMPDEST DUP2 ADD PUSH1 0x0 DUP2 MSTORE SUB ADD SWAP1 KECCAK256 PUSH1 0xFF PUSH1 0xD PUSH1 0x40 MLOAD SWAP3 PUSH2 0x11BA DUP5 PUSH2 0x1FBE JUMP JUMPDEST PUSH2 0x11C3 DUP2 PUSH2 0x20C9 JUMP JUMPDEST DUP5 MSTORE PUSH2 0x11D1 PUSH1 0x1 DUP3 ADD PUSH2 0x20C9 JUMP JUMPDEST PUSH1 0x20 DUP6 ADD MSTORE PUSH1 0x2 DUP2 ADD SLOAD PUSH1 0x40 DUP6 ADD MSTORE PUSH1 0x3 DUP2 ADD SLOAD PUSH1 0x60 DUP6 ADD MSTORE PUSH1 0x4 DUP2 ADD SLOAD PUSH1 0x80 DUP6 ADD MSTORE PUSH2 0x1200 PUSH1 0x5 DUP3 ADD PUSH2 0x20C9 JUMP JUMPDEST PUSH1 0xA0 DUP6 ADD MSTORE PUSH2 0x1211 PUSH1 0x6 DUP3 ADD PUSH2 0x20C9 JUMP JUMPDEST PUSH1 0xC0 DUP6 ADD MSTORE PUSH2 0x1222 PUSH1 0x7 DUP3 ADD PUSH2 0x20C9 JUMP JUMPDEST PUSH1 0xE0 DUP6 ADD MSTORE PUSH1 0x8 DUP2 ADD SLOAD PUSH1 0x1 PUSH1 0x1 PUSH1 0xA0 SHL SUB SWAP1 DUP2 AND PUSH2 0x100 DUP7 ADD MSTORE PUSH1 0x9 DUP3 ADD SLOAD DUP2 AND PUSH2 0x120 DUP7 ADD MSTORE PUSH1 0xA DUP3 ADD SLOAD AND PUSH2 0x140 DUP6 ADD MSTORE PUSH2 0x1262 PUSH1 0xB DUP3 ADD PUSH2 0x20C9 JUMP JUMPDEST PUSH2 0x160 DUP6 ADD MSTORE PUSH1 0xC DUP2 ADD SLOAD PUSH2 0x180 DUP6 ADD MSTORE ADD SLOAD AND ISZERO ISZERO PUSH2 0x1A0 DUP3 ADD MSTORE PUSH1 0x40 MLOAD DUP1 SWAP2 PUSH1 0x20 DUP3 MSTORE PUSH2 0x1A0 PUSH2 0x1375 PUSH2 0x1328 PUSH2 0x1311 PUSH2 0x12FB PUSH2 0x12C7 PUSH2 0x12B1 DUP8 MLOAD PUSH2 0x1C0 PUSH1 0x20 DUP12 ADD MSTORE PUSH2 0x1E0 DUP11 ADD SWAP1 PUSH2 0x216F JUMP JUMPDEST PUSH1 0x20 DUP9 ADD MLOAD DUP10 DUP3 SUB PUSH1 0x1F NOT ADD PUSH1 0x40 DUP12 ADD MSTORE PUSH2 0x216F JUMP JUMPDEST PUSH1 0x40 DUP8 ADD MLOAD PUSH1 0x60 DUP10 ADD MSTORE PUSH1 0x60 DUP8 ADD MLOAD PUSH1 0x80 DUP10 ADD MSTORE PUSH1 0x80 DUP8 ADD MLOAD PUSH1 0xA0 DUP10 ADD MSTORE PUSH1 0xA0 DUP8 ADD MLOAD PUSH1 0x1F NOT DUP10 DUP4 SUB ADD PUSH1 0xC0 DUP11 ADD MSTORE PUSH2 0x216F JUMP JUMPDEST PUSH1 0xC0 DUP7 ADD MLOAD DUP8 DUP3 SUB PUSH1 0x1F NOT ADD PUSH1 0xE0 DUP10 ADD MSTORE PUSH2 0x216F JUMP JUMPDEST PUSH1 0xE0 DUP6 ADD MLOAD DUP7 DUP3 SUB PUSH1 0x1F NOT ADD PUSH2 0x100 DUP9 ADD MSTORE PUSH2 0x216F JUMP JUMPDEST PUSH2 0x100 DUP5 ADD MLOAD PUSH1 0x1 PUSH1 0x1 PUSH1 0xA0 SHL SUB SWAP1 DUP2 AND PUSH2 0x120 DUP8 DUP2 ADD SWAP2 SWAP1 SWAP2 MSTORE DUP6 ADD MLOAD DUP2 AND PUSH2 0x140 DUP1 DUP9 ADD SWAP2 SWAP1 SWAP2 MSTORE DUP6 ADD MLOAD AND PUSH2 0x160 DUP1 DUP8 ADD SWAP2 SWAP1 SWAP2 MSTORE DUP5 ADD MLOAD DUP6 DUP3 SUB PUSH1 0x1F NOT ADD PUSH2 0x180 DUP8 ADD MSTORE PUSH2 0x216F JUMP JUMPDEST SWAP2 PUSH2 0x180 DUP2 ADD MLOAD DUP3 DUP6 ADD MSTORE ADD MLOAD ISZERO ISZERO PUSH2 0x1C0 DUP4 ADD MSTORE SUB SWAP1 RETURN JUMPDEST CALLVALUE PUSH2 0x163 JUMPI PUSH1 0x0 CALLDATASIZE PUSH1 0x3 NOT ADD SLT PUSH2 0x163 JUMPI PUSH1 0x5 SLOAD PUSH2 0x13AB DUP2 PUSH2 0x2610 JUMP JUMPDEST SWAP1 PUSH2 0x13B9 PUSH1 0x40 MLOAD SWAP3 DUP4 PUSH2 0x1FF5 JUMP JUMPDEST DUP1 DUP3 MSTORE PUSH1 0x20 SWAP1 DUP2 DUP4 ADD PUSH1 0x5 PUSH1 0x0 MSTORE PUSH32 0x36B6384B5ECA791C62761152D0C79BB0604C104A5FB6F4EB0703F3154BB3DB0 DUP4 PUSH1 0x0 SWAP3 JUMPDEST DUP5 DUP5 LT PUSH2 0x1407 JUMPI PUSH1 0x40 MLOAD DUP3 DUP2 MSTORE DUP1 PUSH2 0x15F DUP2 DUP6 ADD DUP11 PUSH2 0x2210 JUMP JUMPDEST PUSH1 0x1 SWAP2 DUP3 SWAP2 PUSH2 0x1415 DUP6 PUSH2 0x20C9 JUMP JUMPDEST DUP2 MSTORE ADD SWAP3 ADD SWAP3 ADD SWAP2 SWAP1 DUP5 SWAP1 PUSH2 0x13ED JUMP JUMPDEST CALLVALUE PUSH2 0x163 JUMPI PUSH2 0x1433 CALLDATASIZE PUSH2 0x21C6 JUMP JUMPDEST SWAP2 PUSH1 0x40 MLOAD SWAP3 DUP2 MLOAD SWAP1 PUSH2 0x1456 PUSH1 0xFF PUSH1 0xD PUSH1 0x20 SWAP8 DUP9 DUP2 DUP2 DUP10 ADD SWAP8 PUSH2 0xE3D DUP2 DUP4 DUP12 PUSH2 0x206C JUMP JUMPDEST PUSH2 0x145E PUSH2 0x22F5 JUMP JUMPDEST PUSH1 0x7 PUSH1 0x40 MLOAD DUP8 DUP2 DUP8 MLOAD PUSH2 0x1472 DUP2 DUP4 DUP11 PUSH2 0x206C JUMP JUMPDEST DUP2 ADD PUSH1 0x0 DUP2 MSTORE SUB ADD SWAP1 KECCAK256 ADD SWAP5 PUSH1 0x40 MLOAD SWAP2 PUSH1 0x0 SWAP7 DUP1 SLOAD SWAP4 PUSH2 0x1491 DUP6 PUSH2 0x208F JUMP JUMPDEST DUP1 DUP3 MSTORE DUP11 DUP3 ADD SWAP3 PUSH1 0x1 SWAP7 DUP13 DUP9 DUP3 AND SWAP2 DUP3 PUSH1 0x0 EQ PUSH2 0x16E3 JUMPI POP POP PUSH1 0x1 EQ PUSH2 0x16AB JUMPI JUMPDEST POP POP SWAP1 DUP2 PUSH2 0x14CA PUSH2 0x14DA SWAP5 SWAP4 PUSH2 0x166A SWAP11 SWAP12 SUB DUP3 PUSH2 0x1FF5 JUMP JUMPDEST MLOAD SWAP1 KECCAK256 SWAP1 DUP10 DUP2 MLOAD SWAP2 ADD KECCAK256 EQ PUSH2 0x25A5 JUMP JUMPDEST PUSH2 0x15EC PUSH2 0x1579 DUP9 PUSH1 0x40 MLOAD DUP2 DUP2 DUP12 MLOAD PUSH2 0x14F3 DUP2 DUP4 DUP14 PUSH2 0x206C JUMP JUMPDEST DUP2 ADD PUSH1 0x0 DUP2 MSTORE SUB ADD SWAP1 KECCAK256 SWAP7 PUSH1 0x9 DUP9 ADD CALLER PUSH1 0x1 PUSH1 0x1 PUSH1 0x60 SHL SUB PUSH1 0xA0 SHL DUP3 SLOAD AND OR SWAP1 SSTORE PUSH2 0x1523 PUSH1 0x4 DUP10 ADD SWAP6 DUP7 SLOAD PUSH2 0x2603 JUMP JUMPDEST DUP6 SSTORE PUSH1 0x7 DUP9 ADD SWAP6 PUSH2 0x153D PUSH2 0x1537 DUP9 SLOAD PUSH2 0x208F JUMP JUMPDEST DUP9 PUSH2 0x2345 JUMP JUMPDEST PUSH10 0x125B88151C985B9CDA5D PUSH1 0xB2 SHL SWAP7 PUSH1 0x14 DUP9 ADD SWAP1 SSTORE CALLER PUSH1 0x0 MSTORE PUSH1 0x3 DUP4 MSTORE PUSH2 0x1568 DUP12 PUSH1 0x40 PUSH1 0x0 KECCAK256 PUSH2 0x2471 JUMP JUMPDEST PUSH1 0x40 MLOAD DUP1 SWAP5 DUP2 SWAP4 DUP14 MLOAD SWAP3 DUP4 SWAP2 PUSH2 0x206C JUMP JUMPDEST DUP3 ADD SWAP1 DUP2 MSTORE SUB ADD SWAP1 KECCAK256 SWAP4 DUP3 SLOAD SWAP5 PUSH1 0x40 MLOAD SWAP2 PUSH2 0x1593 DUP4 PUSH2 0x1F8D JUMP JUMPDEST DUP10 DUP4 MSTORE CALLER DUP12 DUP5 ADD MSTORE PUSH1 0x40 MLOAD SWAP7 PUSH2 0x15A8 DUP9 PUSH2 0x1FDA JUMP JUMPDEST PUSH1 0x16 DUP9 MSTORE PUSH22 0x151C985B9CDC1BDC9D185D1A5BDB8814DD185C9D1959 PUSH1 0x52 SHL SWAP8 DUP9 DUP14 DUP3 ADD MSTORE PUSH1 0x40 DUP6 ADD MSTORE PUSH1 0x60 DUP5 ADD MSTORE PUSH1 0x80 DUP4 ADD MSTORE TIMESTAMP PUSH1 0xA0 DUP4 ADD MSTORE NUMBER PUSH1 0xC0 DUP4 ADD MSTORE PUSH2 0x24AD JUMP JUMPDEST PUSH2 0x15F7 PUSH1 0x7 SLOAD PUSH2 0x249E JUMP JUMPDEST PUSH1 0x7 SSTORE SLOAD SWAP1 PUSH2 0x1605 DUP7 PUSH2 0x2540 JUMP JUMPDEST SWAP2 PUSH1 0x40 MLOAD SWAP4 PUSH1 0x60 DUP6 MSTORE PUSH1 0x16 PUSH1 0x60 DUP7 ADD MSTORE PUSH1 0x80 DUP6 ADD MSTORE DUP8 DUP5 ADD MSTORE PUSH1 0xA0 PUSH1 0x40 DUP5 ADD MSTORE PUSH1 0xA PUSH1 0xA0 DUP5 ADD MSTORE PUSH1 0xC0 DUP4 ADD MSTORE PUSH32 0xA759EB65CC9286427D92C3B423C2D7A7E10821F05F598B848C6EA8DE4D3E37E9 PUSH1 0xE0 CALLER SWAP4 LOG3 PUSH1 0x8 ADD SLOAD PUSH1 0x1 PUSH1 0x1 PUSH1 0xA0 SHL SUB AND SWAP2 PUSH2 0x2540 JUMP JUMPDEST PUSH1 0x40 MLOAD SWAP3 PUSH1 0x40 DUP5 MSTORE PUSH1 0xE PUSH1 0x40 DUP6 ADD MSTORE PUSH14 0x2A3930B739B837B93A30BA34B7B7 PUSH1 0x91 SHL PUSH1 0x60 DUP6 ADD MSTORE TIMESTAMP SWAP1 DUP5 ADD MSTORE PUSH1 0x0 DUP1 MLOAD PUSH1 0x20 PUSH2 0x263C DUP4 CODECOPY DUP2 MLOAD SWAP2 MSTORE PUSH1 0x80 CALLER SWAP5 LOG4 STOP JUMPDEST SWAP1 SWAP10 POP PUSH1 0x0 MSTORE DUP10 DUP1 PUSH1 0x0 KECCAK256 PUSH1 0x0 SWAP1 JUMPDEST DUP12 DUP3 LT PUSH2 0x16D0 JUMPI POP DUP3 ADD ADD SWAP9 POP DUP1 PUSH2 0x14CA PUSH2 0x14B2 JUMP JUMPDEST DUP1 SLOAD DUP5 DUP4 ADD DUP5 ADD MSTORE SWAP1 DUP3 ADD SWAP1 DUP8 ADD PUSH2 0x16BA JUMP JUMPDEST PUSH1 0xFF NOT AND DUP7 MSTORE SWAP3 ISZERO ISZERO PUSH1 0x5 SHL DUP5 ADD SWAP1 SWAP3 ADD SWAP11 POP DUP3 SWAP2 POP PUSH2 0x14CA SWAP1 POP PUSH2 0x14B2 JUMP JUMPDEST CALLVALUE PUSH2 0x163 JUMPI PUSH2 0x1711 CALLDATASIZE PUSH2 0x21C6 JUMP JUMPDEST SWAP2 PUSH1 0x40 MLOAD SWAP3 DUP2 MLOAD SWAP1 PUSH2 0x1734 PUSH1 0xFF PUSH1 0xD PUSH1 0x20 SWAP8 DUP9 DUP2 DUP2 DUP10 ADD SWAP8 PUSH2 0xE3D DUP2 DUP4 DUP12 PUSH2 0x206C JUMP JUMPDEST PUSH1 0x40 MLOAD SWAP4 PUSH2 0x1741 DUP6 PUSH2 0x1FDA JUMP JUMPDEST PUSH1 0xA DUP6 MSTORE DUP6 DUP6 ADD SWAP1 PUSH10 0x125B88151C985B9CDA5D PUSH1 0xB2 SHL DUP3 MSTORE PUSH1 0x7 PUSH1 0x40 MLOAD DUP9 DUP2 DUP9 MLOAD PUSH2 0x176D DUP2 DUP4 DUP12 PUSH2 0x206C JUMP JUMPDEST DUP2 ADD PUSH1 0x0 DUP2 MSTORE SUB ADD SWAP1 KECCAK256 ADD SWAP6 PUSH1 0x40 MLOAD SWAP3 PUSH1 0x0 SWAP8 DUP1 SLOAD SWAP5 PUSH2 0x178C DUP7 PUSH2 0x208F JUMP JUMPDEST DUP1 DUP3 MSTORE DUP12 DUP3 ADD SWAP3 PUSH1 0x1 SWAP8 DUP14 DUP10 DUP3 AND SWAP2 DUP3 PUSH1 0x0 EQ PUSH2 0x19C2 JUMPI POP POP PUSH1 0x1 EQ PUSH2 0x198A JUMPI JUMPDEST POP POP SWAP1 DUP2 PUSH2 0x17C6 PUSH2 0x17D3 SWAP6 SWAP5 SWAP4 PUSH2 0x1951 SWAP12 SWAP13 SUB DUP3 PUSH2 0x1FF5 JUMP JUMPDEST MLOAD SWAP1 KECCAK256 SWAP2 MLOAD SWAP1 KECCAK256 EQ PUSH2 0x25A5 JUMP JUMPDEST PUSH2 0x18D3 PUSH2 0x1868 DUP9 PUSH1 0x40 MLOAD DUP2 DUP2 DUP12 MLOAD PUSH2 0x17EC DUP2 DUP4 DUP14 PUSH2 0x206C JUMP JUMPDEST DUP2 ADD PUSH1 0x0 DUP2 MSTORE SUB ADD SWAP1 KECCAK256 SWAP7 PUSH1 0xA DUP9 ADD CALLER PUSH1 0x1 PUSH1 0x1 PUSH1 0x60 SHL SUB PUSH1 0xA0 SHL DUP3 SLOAD AND OR SWAP1 SSTORE PUSH2 0x181C PUSH1 0x4 DUP10 ADD SWAP6 DUP7 SLOAD PUSH2 0x2603 JUMP JUMPDEST DUP6 SSTORE PUSH1 0x7 DUP9 ADD SWAP6 PUSH2 0x1830 PUSH2 0x1537 DUP9 SLOAD PUSH2 0x208F JUMP JUMPDEST PUSH23 0x417661696C61626C6520666F7220436F6E73756D657273 PUSH1 0x48 SHL SWAP7 PUSH1 0x2E DUP9 ADD SWAP1 SSTORE CALLER PUSH1 0x0 MSTORE PUSH1 0x4 DUP4 MSTORE PUSH2 0x1568 DUP12 PUSH1 0x40 PUSH1 0x0 KECCAK256 PUSH2 0x2471 JUMP JUMPDEST DUP3 ADD SWAP1 DUP2 MSTORE SUB ADD SWAP1 KECCAK256 SWAP4 DUP3 SLOAD SWAP5 PUSH1 0x40 MLOAD SWAP2 PUSH2 0x1882 DUP4 PUSH2 0x1F8D JUMP JUMPDEST DUP10 DUP4 MSTORE CALLER DUP12 DUP5 ADD MSTORE PUSH1 0x40 MLOAD SWAP7 PUSH2 0x1897 DUP9 PUSH2 0x1FDA JUMP JUMPDEST PUSH1 0xE DUP9 MSTORE PUSH14 0x416464656420746F2053746F7265 PUSH1 0x90 SHL SWAP8 DUP9 DUP14 DUP3 ADD MSTORE PUSH1 0x40 DUP6 ADD MSTORE PUSH1 0x60 DUP5 ADD MSTORE PUSH1 0x80 DUP4 ADD MSTORE TIMESTAMP PUSH1 0xA0 DUP4 ADD MSTORE NUMBER PUSH1 0xC0 DUP4 ADD MSTORE PUSH2 0x24AD JUMP JUMPDEST PUSH2 0x18DE PUSH1 0x7 SLOAD PUSH2 0x249E JUMP JUMPDEST PUSH1 0x7 SSTORE SLOAD SWAP1 PUSH2 0x18EC DUP7 PUSH2 0x2540 JUMP JUMPDEST SWAP2 PUSH1 0x40 MLOAD SWAP4 PUSH1 0x60 DUP6 MSTORE PUSH1 0xE PUSH1 0x60 DUP7 ADD MSTORE PUSH1 0x80 DUP6 ADD MSTORE DUP8 DUP5 ADD MSTORE PUSH1 0xA0 PUSH1 0x40 DUP5 ADD MSTORE PUSH1 0x17 PUSH1 0xA0 DUP5 ADD MSTORE PUSH1 0xC0 DUP4 ADD MSTORE PUSH32 0xA759EB65CC9286427D92C3B423C2D7A7E10821F05F598B848C6EA8DE4D3E37E9 PUSH1 0xE0 CALLER SWAP4 LOG3 PUSH1 0x9 ADD SLOAD PUSH1 0x1 PUSH1 0x1 PUSH1 0xA0 SHL SUB AND SWAP2 PUSH2 0x2540 JUMP JUMPDEST PUSH1 0x40 MLOAD SWAP3 PUSH1 0x40 DUP5 MSTORE PUSH1 0x6 PUSH1 0x40 DUP6 ADD MSTORE PUSH6 0x14995D185A5B PUSH1 0xD2 SHL PUSH1 0x60 DUP6 ADD MSTORE TIMESTAMP SWAP1 DUP5 ADD MSTORE PUSH1 0x0 DUP1 MLOAD PUSH1 0x20 PUSH2 0x263C DUP4 CODECOPY DUP2 MLOAD SWAP2 MSTORE PUSH1 0x80 CALLER SWAP5 LOG4 STOP JUMPDEST SWAP1 SWAP11 POP PUSH1 0x0 MSTORE DUP11 DUP1 PUSH1 0x0 KECCAK256 PUSH1 0x0 SWAP1 JUMPDEST DUP13 DUP3 LT PUSH2 0x19AF JUMPI POP DUP3 ADD ADD SWAP10 POP DUP1 PUSH2 0x17C6 PUSH2 0x17AD JUMP JUMPDEST DUP1 SLOAD DUP5 DUP4 ADD DUP5 ADD MSTORE SWAP1 DUP3 ADD SWAP1 DUP9 ADD PUSH2 0x1999 JUMP JUMPDEST PUSH1 0xFF NOT AND DUP7 MSTORE SWAP3 ISZERO ISZERO PUSH1 0x5 SHL DUP5 ADD SWAP1 SWAP3 ADD SWAP12 POP DUP3 SWAP2 POP PUSH2 0x17C6 SWAP1 POP PUSH2 0x17AD JUMP JUMPDEST CALLVALUE PUSH2 0x163 JUMPI PUSH1 0x20 DUP1 PUSH1 0x3 NOT CALLDATASIZE ADD SLT PUSH2 0x163 JUMPI PUSH1 0x4 CALLDATALOAD PUSH1 0x1 PUSH1 0x1 PUSH1 0x40 SHL SUB DUP2 GT PUSH2 0x163 JUMPI PUSH2 0x1A13 SWAP1 CALLDATASIZE SWAP1 PUSH1 0x4 ADD PUSH2 0x2016 JUMP JUMPDEST PUSH1 0x40 MLOAD PUSH2 0x1A31 PUSH1 0xFF PUSH1 0xD DUP5 MLOAD SWAP4 DUP7 DUP2 DUP2 DUP9 ADD SWAP7 PUSH2 0xE3D DUP2 DUP4 DUP11 PUSH2 0x206C JUMP JUMPDEST DUP3 PUSH1 0x40 MLOAD SWAP2 PUSH2 0x1A3F DUP4 PUSH2 0x1FDA JUMP JUMPDEST PUSH1 0x17 DUP4 MSTORE DUP2 DUP4 ADD SWAP3 PUSH23 0x417661696C61626C6520666F7220436F6E73756D657273 PUSH1 0x48 SHL DUP5 MSTORE PUSH1 0x7 PUSH1 0x40 MLOAD DUP5 DUP2 DUP9 MLOAD PUSH2 0x1A78 DUP2 DUP4 DUP10 PUSH2 0x206C JUMP JUMPDEST DUP2 ADD PUSH1 0x0 DUP2 MSTORE SUB ADD SWAP1 KECCAK256 ADD SWAP4 PUSH1 0x40 MLOAD SWAP5 PUSH1 0x0 SWAP6 DUP2 SLOAD SWAP7 PUSH2 0x1A97 DUP9 PUSH2 0x208F JUMP JUMPDEST DUP1 DUP4 MSTORE DUP8 DUP4 ADD SWAP4 PUSH1 0x1 SWAP10 DUP11 DUP2 AND SWAP1 DUP2 PUSH1 0x0 EQ PUSH2 0x1CEF JUMPI POP PUSH1 0x1 EQ PUSH2 0x1CBC JUMPI JUMPDEST POP POP SWAP3 PUSH2 0x1AD4 SWAP3 DUP3 PUSH2 0x17C6 PUSH2 0x1C81 SWAP11 SWAP10 SWAP8 SWAP5 PUSH2 0x1B2C SWAP10 SWAP8 SUB DUP3 PUSH2 0x1FF5 JUMP JUMPDEST PUSH1 0x40 MLOAD DUP3 DUP2 DUP9 MLOAD PUSH2 0x1AE6 DUP2 DUP4 DUP8 PUSH2 0x206C JUMP JUMPDEST DUP2 ADD PUSH1 0x0 DUP2 MSTORE SUB ADD SWAP1 KECCAK256 SWAP4 PUSH1 0x7 DUP6 ADD PUSH2 0x1B08 PUSH2 0x1B02 DUP3 SLOAD PUSH2 0x208F JUMP JUMPDEST DUP3 PUSH2 0x2345 JUMP JUMPDEST PUSH1 0x12 PUSH9 0x11195B1A5D995C9959 PUSH1 0xBA SHL ADD SWAP1 SSTORE PUSH1 0x40 MLOAD DUP8 MLOAD SWAP1 SWAP5 DUP6 SWAP4 DUP3 SWAP1 DUP6 SWAP1 PUSH2 0x206C JUMP JUMPDEST DUP3 ADD SWAP1 DUP2 MSTORE SUB ADD SWAP1 KECCAK256 PUSH2 0x1BD7 PUSH1 0x4 DUP4 ADD SWAP2 DUP3 SLOAD SWAP1 PUSH1 0x40 MLOAD SWAP2 PUSH2 0x1B4D DUP4 PUSH2 0x1F8D JUMP JUMPDEST DUP8 DUP4 MSTORE CALLER DUP10 DUP5 ADD MSTORE PUSH1 0x40 MLOAD PUSH2 0x1B61 DUP2 PUSH2 0x1FDA JUMP JUMPDEST PUSH1 0x15 DUP2 MSTORE PUSH21 0x2232B634BB32B932B2103A379021B7B739BAB6B2B9 PUSH1 0x59 SHL DUP11 DUP3 ADD MSTORE PUSH1 0x40 DUP5 ADD MSTORE PUSH1 0x60 DUP4 ADD MSTORE PUSH1 0x40 MLOAD PUSH2 0x1B98 DUP2 PUSH2 0x1FDA JUMP JUMPDEST PUSH1 0x1E DUP2 MSTORE PUSH32 0x50726F64756374207375636365737366756C6C792064656C6976657265640000 DUP10 DUP3 ADD MSTORE PUSH1 0x80 DUP4 ADD MSTORE TIMESTAMP PUSH1 0xA0 DUP4 ADD MSTORE NUMBER PUSH1 0xC0 DUP4 ADD MSTORE PUSH2 0x24AD JUMP JUMPDEST PUSH2 0x1BE2 PUSH1 0x7 SLOAD PUSH2 0x249E JUMP JUMPDEST PUSH1 0x7 SSTORE SLOAD PUSH2 0x1BEF DUP5 PUSH2 0x2540 JUMP JUMPDEST PUSH32 0xA759EB65CC9286427D92C3B423C2D7A7E10821F05F598B848C6EA8DE4D3E37E9 PUSH1 0x40 MLOAD PUSH1 0x60 DUP2 MSTORE PUSH2 0x1C3B PUSH1 0x60 DUP3 ADD PUSH1 0x40 SWAP1 PUSH1 0x9 DUP2 MSTORE PUSH9 0x11195B1A5D995C9959 PUSH1 0xBA SHL PUSH1 0x20 DUP3 ADD MSTORE ADD SWAP1 JUMP JUMPDEST SWAP4 DUP9 DUP3 ADD MSTORE DUP1 DUP5 SUB PUSH1 0x40 DUP3 ADD MSTORE DUP1 PUSH2 0x1C6B CALLER SWAP6 PUSH1 0x40 SWAP1 PUSH1 0x9 DUP2 MSTORE PUSH9 0x11195B1A5D995C9959 PUSH1 0xBA SHL PUSH1 0x20 DUP3 ADD MSTORE ADD SWAP1 JUMP JUMPDEST SUB SWAP1 LOG3 PUSH1 0xA ADD SLOAD PUSH1 0x1 PUSH1 0x1 PUSH1 0xA0 SHL SUB AND SWAP2 PUSH2 0x2540 JUMP JUMPDEST PUSH1 0x40 MLOAD SWAP3 PUSH1 0x40 DUP5 MSTORE PUSH1 0x8 PUSH1 0x40 DUP6 ADD MSTORE PUSH8 0x44656C6976657279 PUSH1 0xC0 SHL PUSH1 0x60 DUP6 ADD MSTORE TIMESTAMP SWAP1 DUP5 ADD MSTORE PUSH1 0x0 DUP1 MLOAD PUSH1 0x20 PUSH2 0x263C DUP4 CODECOPY DUP2 MLOAD SWAP2 MSTORE PUSH1 0x80 CALLER SWAP5 LOG4 STOP JUMPDEST PUSH1 0x0 SWAP1 DUP2 MSTORE DUP9 DUP2 KECCAK256 SWAP1 SWAP3 POP JUMPDEST DUP2 DUP4 LT PUSH2 0x1CDC JUMPI POP POP DUP2 ADD DUP7 ADD DUP3 DUP3 PUSH2 0x1AB6 JUMP JUMPDEST DUP1 SLOAD DUP5 DUP5 ADD DUP11 ADD MSTORE SWAP2 DUP9 ADD SWAP2 DUP10 ADD PUSH2 0x1CC8 JUMP JUMPDEST PUSH1 0xFF NOT AND DUP7 MSTORE POP POP ISZERO ISZERO PUSH1 0x5 SHL DUP3 ADD DUP8 ADD SWAP1 POP DUP3 DUP3 PUSH2 0x1AB6 JUMP JUMPDEST CALLVALUE PUSH2 0x163 JUMPI PUSH1 0x40 CALLDATASIZE PUSH1 0x3 NOT ADD SLT PUSH2 0x163 JUMPI PUSH1 0x4 CALLDATALOAD PUSH1 0x1 PUSH1 0x1 PUSH1 0x40 SHL SUB DUP2 GT PUSH2 0x163 JUMPI PUSH2 0x1D39 SWAP1 CALLDATASIZE SWAP1 PUSH1 0x4 ADD PUSH2 0x2016 JUMP JUMPDEST PUSH2 0x1D55 PUSH1 0x20 PUSH1 0x24 CALLDATALOAD SWAP3 DUP2 PUSH1 0x40 MLOAD SWAP4 DUP3 DUP6 DUP1 SWAP5 MLOAD SWAP4 DUP5 SWAP3 ADD PUSH2 0x206C JUMP JUMPDEST DUP2 ADD PUSH1 0x1 DUP2 MSTORE SUB ADD SWAP1 KECCAK256 DUP1 SLOAD DUP3 LT ISZERO PUSH2 0x163 JUMPI PUSH2 0x1DD5 SWAP2 PUSH2 0x1D75 SWAP2 PUSH2 0x2194 JUMP JUMPDEST POP PUSH2 0x1D7F DUP2 PUSH2 0x20C9 JUMP JUMPDEST PUSH1 0x1 DUP3 ADD SLOAD SWAP1 SWAP2 SWAP1 PUSH1 0x1 PUSH1 0x1 PUSH1 0xA0 SHL SUB AND PUSH2 0x1DFB PUSH2 0x1D9F PUSH1 0x2 DUP5 ADD PUSH2 0x20C9 JUMP JUMPDEST SWAP2 PUSH1 0x3 DUP5 ADD SLOAD SWAP1 PUSH2 0x1DE8 PUSH2 0x1DB5 PUSH1 0x4 DUP8 ADD PUSH2 0x20C9 JUMP JUMPDEST SWAP2 PUSH1 0x6 PUSH1 0x5 DUP9 ADD SLOAD SWAP8 ADD SLOAD SWAP6 PUSH1 0x40 MLOAD SWAP10 DUP11 SWAP10 PUSH1 0xE0 DUP12 MSTORE PUSH1 0xE0 DUP12 ADD SWAP1 PUSH2 0x216F JUMP JUMPDEST SWAP2 PUSH1 0x20 DUP11 ADD MSTORE DUP9 DUP3 SUB PUSH1 0x40 DUP11 ADD MSTORE PUSH2 0x216F JUMP JUMPDEST SWAP2 PUSH1 0x60 DUP8 ADD MSTORE DUP6 DUP3 SUB PUSH1 0x80 DUP8 ADD MSTORE PUSH2 0x216F JUMP JUMPDEST SWAP2 PUSH1 0xA0 DUP5 ADD MSTORE PUSH1 0xC0 DUP4 ADD MSTORE SUB SWAP1 RETURN JUMPDEST CALLVALUE PUSH2 0x163 JUMPI PUSH1 0x20 CALLDATASIZE PUSH1 0x3 NOT ADD SLT PUSH2 0x163 JUMPI PUSH1 0x4 CALLDATALOAD PUSH1 0x1 PUSH1 0x1 PUSH1 0x40 SHL SUB DUP2 GT PUSH2 0x163 JUMPI PUSH2 0x1E3A SWAP1 CALLDATASIZE SWAP1 PUSH1 0x4 ADD PUSH2 0x2016 JUMP JUMPDEST PUSH1 0x40 MLOAD DUP2 DUP2 DUP1 SWAP4 MLOAD PUSH1 0x20 DUP2 SWAP4 ADD SWAP2 PUSH2 0x1E51 SWAP3 PUSH2 0x206C JUMP JUMPDEST DUP2 ADD PUSH1 0x0 DUP2 MSTORE SUB PUSH1 0x20 ADD SWAP1 KECCAK256 PUSH2 0x1E66 DUP2 PUSH2 0x20C9 JUMP JUMPDEST SWAP1 PUSH2 0x1E73 PUSH1 0x1 DUP3 ADD PUSH2 0x20C9 JUMP JUMPDEST SWAP1 PUSH1 0x2 DUP2 ADD SLOAD SWAP3 PUSH1 0x3 DUP3 ADD SLOAD SWAP1 PUSH1 0x4 DUP4 ADD SLOAD SWAP1 PUSH1 0x5 DUP5 ADD PUSH2 0x1E93 SWAP1 PUSH2 0x20C9 JUMP JUMPDEST SWAP1 PUSH2 0x1EA0 PUSH1 0x6 DUP7 ADD PUSH2 0x20C9 JUMP JUMPDEST PUSH2 0x1EAC PUSH1 0x7 DUP8 ADD PUSH2 0x20C9 JUMP JUMPDEST PUSH1 0x1 PUSH1 0xA0 SHL PUSH1 0x1 SWAP1 SUB SWAP2 DUP3 PUSH1 0x8 DUP10 ADD SLOAD AND SWAP5 DUP4 PUSH1 0x9 DUP11 ADD SLOAD AND SWAP4 PUSH1 0xA DUP11 ADD SLOAD AND SWAP5 PUSH1 0xB DUP11 ADD PUSH2 0x1EDA SWAP1 PUSH2 0x20C9 JUMP JUMPDEST SWAP8 PUSH1 0xC DUP12 ADD SLOAD SWAP11 PUSH1 0xD ADD SLOAD PUSH1 0xFF AND SWAP10 PUSH1 0x40 MLOAD SWAP14 DUP15 SWAP14 DUP15 SWAP5 PUSH2 0x1C0 DUP1 DUP8 MSTORE DUP7 ADD PUSH2 0x1F02 SWAP2 PUSH2 0x216F JUMP JUMPDEST DUP6 DUP2 SUB PUSH1 0x20 DUP8 ADD MSTORE PUSH2 0x1F13 SWAP2 PUSH2 0x216F JUMP JUMPDEST SWAP4 PUSH1 0x40 ADD MSTORE PUSH1 0x60 DUP14 ADD MSTORE PUSH1 0x80 DUP13 ADD MSTORE DUP11 DUP2 SUB PUSH1 0xA0 DUP13 ADD MSTORE PUSH2 0x1F33 SWAP2 PUSH2 0x216F JUMP JUMPDEST DUP10 DUP2 SUB PUSH1 0xC0 DUP12 ADD MSTORE PUSH2 0x1F44 SWAP2 PUSH2 0x216F JUMP JUMPDEST DUP9 DUP2 SUB PUSH1 0xE0 DUP11 ADD MSTORE PUSH2 0x1F55 SWAP2 PUSH2 0x216F JUMP JUMPDEST SWAP3 PUSH2 0x100 DUP9 ADD MSTORE PUSH2 0x120 DUP8 ADD MSTORE PUSH2 0x140 DUP7 ADD MSTORE DUP5 DUP2 SUB PUSH2 0x160 DUP7 ADD MSTORE PUSH2 0x1F7A SWAP2 PUSH2 0x216F JUMP JUMPDEST SWAP2 PUSH2 0x180 DUP5 ADD MSTORE ISZERO ISZERO PUSH2 0x1A0 DUP4 ADD MSTORE SUB SWAP1 RETURN JUMPDEST PUSH1 0xE0 DUP2 ADD SWAP1 DUP2 LT PUSH1 0x1 PUSH1 0x1 PUSH1 0x40 SHL SUB DUP3 GT OR PUSH2 0x1FA8 JUMPI PUSH1 0x40 MSTORE JUMP JUMPDEST PUSH4 0x4E487B71 PUSH1 0xE0 SHL PUSH1 0x0 MSTORE PUSH1 0x41 PUSH1 0x4 MSTORE PUSH1 0x24 PUSH1 0x0 REVERT JUMPDEST PUSH2 0x1C0 DUP2 ADD SWAP1 DUP2 LT PUSH1 0x1 PUSH1 0x1 PUSH1 0x40 SHL SUB DUP3 GT OR PUSH2 0x1FA8 JUMPI PUSH1 0x40 MSTORE JUMP JUMPDEST PUSH1 0x40 DUP2 ADD SWAP1 DUP2 LT PUSH1 0x1 PUSH1 0x1 PUSH1 0x40 SHL SUB DUP3 GT OR PUSH2 0x1FA8 JUMPI PUSH1 0x40 MSTORE JUMP JUMPDEST SWAP1 PUSH1 0x1F DUP1 NOT SWAP2 ADD AND DUP2 ADD SWAP1 DUP2 LT PUSH1 0x1 PUSH1 0x1 PUSH1 0x40 SHL SUB DUP3 GT OR PUSH2 0x1FA8 JUMPI PUSH1 0x40 MSTORE JUMP JUMPDEST DUP2 PUSH1 0x1F DUP3 ADD SLT ISZERO PUSH2 0x163 JUMPI DUP1 CALLDATALOAD SWAP1 PUSH1 0x1 PUSH1 0x1 PUSH1 0x40 SHL SUB DUP3 GT PUSH2 0x1FA8 JUMPI PUSH1 0x40 MLOAD SWAP3 PUSH2 0x204A PUSH1 0x1F DUP5 ADD PUSH1 0x1F NOT AND PUSH1 0x20 ADD DUP6 PUSH2 0x1FF5 JUMP JUMPDEST DUP3 DUP5 MSTORE PUSH1 0x20 DUP4 DUP4 ADD ADD GT PUSH2 0x163 JUMPI DUP2 PUSH1 0x0 SWAP3 PUSH1 0x20 DUP1 SWAP4 ADD DUP4 DUP7 ADD CALLDATACOPY DUP4 ADD ADD MSTORE SWAP1 JUMP JUMPDEST PUSH1 0x0 JUMPDEST DUP4 DUP2 LT PUSH2 0x207F JUMPI POP POP PUSH1 0x0 SWAP2 ADD MSTORE JUMP JUMPDEST DUP2 DUP2 ADD MLOAD DUP4 DUP3 ADD MSTORE PUSH1 0x20 ADD PUSH2 0x206F JUMP JUMPDEST SWAP1 PUSH1 0x1 DUP3 DUP2 SHR SWAP3 AND DUP1 ISZERO PUSH2 0x20BF JUMPI JUMPDEST PUSH1 0x20 DUP4 LT EQ PUSH2 0x20A9 JUMPI JUMP JUMPDEST PUSH4 0x4E487B71 PUSH1 0xE0 SHL PUSH1 0x0 MSTORE PUSH1 0x22 PUSH1 0x4 MSTORE PUSH1 0x24 PUSH1 0x0 REVERT JUMPDEST SWAP2 PUSH1 0x7F AND SWAP2 PUSH2 0x209E JUMP JUMPDEST SWAP1 PUSH1 0x40 MLOAD SWAP2 DUP3 PUSH1 0x0 DUP3 SLOAD SWAP3 PUSH2 0x20DD DUP5 PUSH2 0x208F JUMP JUMPDEST SWAP1 DUP2 DUP5 MSTORE PUSH1 0x1 SWAP5 DUP6 DUP2 AND SWAP1 DUP2 PUSH1 0x0 EQ PUSH2 0x214C JUMPI POP PUSH1 0x1 EQ PUSH2 0x2109 JUMPI JUMPDEST POP POP PUSH2 0x2107 SWAP3 POP SUB DUP4 PUSH2 0x1FF5 JUMP JUMPDEST JUMP JUMPDEST SWAP1 SWAP4 SWAP2 POP PUSH1 0x0 MSTORE PUSH1 0x20 SWAP1 DUP2 PUSH1 0x0 KECCAK256 SWAP4 PUSH1 0x0 SWAP2 JUMPDEST DUP2 DUP4 LT PUSH2 0x2134 JUMPI POP POP PUSH2 0x2107 SWAP4 POP DUP3 ADD ADD CODESIZE DUP1 PUSH2 0x20F9 JUMP JUMPDEST DUP6 SLOAD DUP9 DUP5 ADD DUP6 ADD MSTORE SWAP5 DUP6 ADD SWAP5 DUP8 SWAP5 POP SWAP2 DUP4 ADD SWAP2 PUSH2 0x211C JUMP JUMPDEST SWAP2 POP POP PUSH2 0x2107 SWAP5 POP PUSH1 0x20 SWAP3 POP PUSH1 0xFF NOT AND DUP3 DUP5 ADD MSTORE ISZERO ISZERO PUSH1 0x5 SHL DUP3 ADD ADD CODESIZE DUP1 PUSH2 0x20F9 JUMP JUMPDEST SWAP1 PUSH1 0x20 SWAP2 PUSH2 0x2188 DUP2 MLOAD DUP1 SWAP3 DUP2 DUP6 MSTORE DUP6 DUP1 DUP7 ADD SWAP2 ADD PUSH2 0x206C JUMP JUMPDEST PUSH1 0x1F ADD PUSH1 0x1F NOT AND ADD ADD SWAP1 JUMP JUMPDEST DUP1 SLOAD DUP3 LT ISZERO PUSH2 0x21B0 JUMPI PUSH1 0x0 MSTORE PUSH1 0x7 PUSH1 0x20 PUSH1 0x0 KECCAK256 SWAP2 MUL ADD SWAP1 PUSH1 0x0 SWAP1 JUMP JUMPDEST PUSH4 0x4E487B71 PUSH1 0xE0 SHL PUSH1 0x0 MSTORE PUSH1 0x32 PUSH1 0x4 MSTORE PUSH1 0x24 PUSH1 0x0 REVERT JUMPDEST PUSH1 0x60 PUSH1 0x3 NOT DUP3 ADD SLT PUSH2 0x163 JUMPI PUSH1 0x1 PUSH1 0x1 PUSH1 0x40 SHL SUB SWAP2 PUSH1 0x4 CALLDATALOAD DUP4 DUP2 GT PUSH2 0x163 JUMPI DUP3 PUSH2 0x21F2 SWAP2 PUSH1 0x4 ADD PUSH2 0x2016 JUMP JUMPDEST SWAP3 PUSH1 0x24 CALLDATALOAD SWAP3 PUSH1 0x44 CALLDATALOAD SWAP2 DUP3 GT PUSH2 0x163 JUMPI PUSH2 0x220D SWAP2 PUSH1 0x4 ADD PUSH2 0x2016 JUMP JUMPDEST SWAP1 JUMP JUMPDEST SWAP1 DUP1 DUP3 MLOAD SWAP1 DUP2 DUP2 MSTORE PUSH1 0x20 DUP1 SWAP2 ADD SWAP3 DUP2 DUP1 DUP5 PUSH1 0x5 SHL DUP4 ADD ADD SWAP6 ADD SWAP4 PUSH1 0x0 SWAP2 JUMPDEST DUP5 DUP4 LT PUSH2 0x223E JUMPI POP POP POP POP POP POP SWAP1 JUMP JUMPDEST SWAP1 SWAP2 SWAP3 SWAP4 SWAP5 SWAP6 DUP5 DUP1 PUSH2 0x225C PUSH1 0x1 SWAP4 PUSH1 0x1F NOT DUP7 DUP3 SUB ADD DUP8 MSTORE DUP11 MLOAD PUSH2 0x216F JUMP JUMPDEST SWAP9 ADD SWAP4 ADD SWAP4 ADD SWAP2 SWAP5 SWAP4 SWAP3 SWAP1 PUSH2 0x222E JUMP JUMPDEST PUSH1 0x4 CALLDATALOAD SWAP1 PUSH1 0x1 PUSH1 0x1 PUSH1 0xA0 SHL SUB DUP3 AND DUP3 SUB PUSH2 0x163 JUMPI JUMP JUMPDEST PUSH1 0x5 SLOAD DUP2 LT ISZERO PUSH2 0x21B0 JUMPI PUSH1 0x5 PUSH1 0x0 MSTORE PUSH32 0x36B6384B5ECA791C62761152D0C79BB0604C104A5FB6F4EB0703F3154BB3DB0 ADD SWAP1 PUSH1 0x0 SWAP1 JUMP JUMPDEST DUP1 SLOAD DUP3 LT ISZERO PUSH2 0x21B0 JUMPI PUSH1 0x0 MSTORE PUSH1 0x20 PUSH1 0x0 KECCAK256 ADD SWAP1 PUSH1 0x0 SWAP1 JUMP JUMPDEST SWAP1 PUSH2 0x22DF JUMPI PUSH2 0x220D SWAP1 PUSH2 0x20C9 JUMP JUMPDEST PUSH4 0x4E487B71 PUSH1 0xE0 SHL PUSH1 0x0 MSTORE PUSH1 0x0 PUSH1 0x4 MSTORE PUSH1 0x24 PUSH1 0x0 REVERT JUMPDEST PUSH1 0x40 MLOAD SWAP1 PUSH2 0x2302 DUP3 PUSH2 0x1FDA JUMP JUMPDEST PUSH1 0x1A DUP3 MSTORE PUSH32 0x417661696C61626C6520666F7220446973747269627574696F6E000000000000 PUSH1 0x20 DUP4 ADD MSTORE JUMP JUMPDEST DUP2 DUP2 LT PUSH2 0x2339 JUMPI POP POP JUMP JUMPDEST PUSH1 0x0 DUP2 SSTORE PUSH1 0x1 ADD PUSH2 0x232E JUMP JUMPDEST SWAP1 PUSH1 0x1F DUP2 GT PUSH2 0x2352 JUMPI POP POP JUMP JUMPDEST PUSH2 0x2107 SWAP2 PUSH1 0x0 MSTORE PUSH1 0x1F PUSH1 0x20 PUSH1 0x0 KECCAK256 SWAP2 ADD PUSH1 0x5 SHR DUP2 ADD SWAP1 PUSH2 0x232E JUMP JUMPDEST SWAP2 SWAP1 SWAP2 DUP3 MLOAD PUSH1 0x1 PUSH1 0x1 PUSH1 0x40 SHL SUB DUP2 GT PUSH2 0x1FA8 JUMPI PUSH2 0x238A DUP3 SLOAD PUSH2 0x208F JUMP JUMPDEST PUSH1 0x1F DUP2 GT PUSH2 0x2434 JUMPI JUMPDEST POP PUSH1 0x20 DUP1 PUSH1 0x1F DUP4 GT PUSH1 0x1 EQ PUSH2 0x23D0 JUMPI POP DUP2 SWAP3 SWAP4 SWAP5 PUSH1 0x0 SWAP3 PUSH2 0x23C5 JUMPI JUMPDEST POP POP DUP2 PUSH1 0x1 SHL SWAP2 PUSH1 0x0 NOT SWAP1 PUSH1 0x3 SHL SHR NOT AND OR SWAP1 SSTORE JUMP JUMPDEST ADD MLOAD SWAP1 POP CODESIZE DUP1 PUSH2 0x23AF JUMP JUMPDEST SWAP1 PUSH1 0x1F NOT DUP4 AND SWAP6 DUP5 PUSH1 0x0 MSTORE DUP3 PUSH1 0x0 KECCAK256 SWAP3 PUSH1 0x0 SWAP1 JUMPDEST DUP9 DUP3 LT PUSH2 0x241C JUMPI POP POP DUP4 PUSH1 0x1 SWAP6 SWAP7 SWAP8 LT PUSH2 0x2403 JUMPI JUMPDEST POP POP POP DUP2 SHL ADD SWAP1 SSTORE JUMP JUMPDEST ADD MLOAD PUSH1 0x0 NOT PUSH1 0xF8 DUP5 PUSH1 0x3 SHL AND SHR NOT AND SWAP1 SSTORE CODESIZE DUP1 DUP1 PUSH2 0x23F9 JUMP JUMPDEST DUP1 PUSH1 0x1 DUP6 SWAP7 DUP3 SWAP5 SWAP7 DUP7 ADD MLOAD DUP2 SSTORE ADD SWAP6 ADD SWAP4 ADD SWAP1 PUSH2 0x23E4 JUMP JUMPDEST PUSH2 0x2461 SWAP1 DUP4 PUSH1 0x0 MSTORE PUSH1 0x20 PUSH1 0x0 KECCAK256 PUSH1 0x1F DUP5 ADD PUSH1 0x5 SHR DUP2 ADD SWAP2 PUSH1 0x20 DUP6 LT PUSH2 0x2467 JUMPI JUMPDEST PUSH1 0x1F ADD PUSH1 0x5 SHR ADD SWAP1 PUSH2 0x232E JUMP JUMPDEST CODESIZE PUSH2 0x2393 JUMP JUMPDEST SWAP1 SWAP2 POP DUP2 SWAP1 PUSH2 0x2454 JUMP JUMPDEST DUP1 SLOAD PUSH1 0x1 PUSH1 0x40 SHL DUP2 LT ISZERO PUSH2 0x1FA8 JUMPI PUSH2 0x248E SWAP2 PUSH1 0x1 DUP3 ADD DUP2 SSTORE PUSH2 0x22B9 JUMP JUMPDEST SWAP2 SWAP1 SWAP2 PUSH2 0x22DF JUMPI PUSH2 0x2107 SWAP2 PUSH2 0x236D JUMP JUMPDEST PUSH1 0x0 NOT DUP2 EQ PUSH2 0x47E JUMPI PUSH1 0x1 ADD SWAP1 JUMP JUMPDEST DUP1 SLOAD PUSH1 0x1 PUSH1 0x40 SHL DUP2 LT ISZERO PUSH2 0x1FA8 JUMPI PUSH2 0x24CA SWAP2 PUSH1 0x1 DUP3 ADD DUP2 SSTORE PUSH2 0x2194 JUMP JUMPDEST SWAP2 SWAP1 SWAP2 PUSH2 0x22DF JUMPI PUSH1 0xC0 DUP2 PUSH2 0x24E1 PUSH1 0x6 SWAP4 MLOAD DUP6 PUSH2 0x236D JUMP JUMPDEST PUSH1 0x1 DUP5 ADD PUSH1 0x1 DUP1 PUSH1 0xA0 SHL SUB PUSH1 0x20 DUP4 ADD MLOAD AND PUSH1 0x1 PUSH1 0x1 PUSH1 0x60 SHL SUB PUSH1 0xA0 SHL DUP3 SLOAD AND OR SWAP1 SSTORE PUSH2 0x2514 PUSH1 0x40 DUP3 ADD MLOAD PUSH1 0x2 DUP7 ADD PUSH2 0x236D JUMP JUMPDEST PUSH1 0x60 DUP2 ADD MLOAD PUSH1 0x3 DUP6 ADD SSTORE PUSH2 0x252F PUSH1 0x80 DUP3 ADD MLOAD PUSH1 0x4 DUP7 ADD PUSH2 0x236D JUMP JUMPDEST PUSH1 0xA0 DUP2 ADD MLOAD PUSH1 0x5 DUP6 ADD SSTORE ADD MLOAD SWAP2 ADD SSTORE JUMP JUMPDEST PUSH2 0x2558 SWAP1 PUSH1 0x20 PUSH1 0x40 MLOAD SWAP3 DUP3 DUP5 DUP1 SWAP5 MLOAD SWAP4 DUP5 SWAP3 ADD PUSH2 0x206C JUMP JUMPDEST DUP2 ADD SUB SWAP1 KECCAK256 SWAP1 JUMP JUMPDEST ISZERO PUSH2 0x2567 JUMPI JUMP JUMPDEST PUSH1 0x40 MLOAD PUSH3 0x461BCD PUSH1 0xE5 SHL DUP2 MSTORE PUSH1 0x20 PUSH1 0x4 DUP3 ADD MSTORE PUSH1 0x16 PUSH1 0x24 DUP3 ADD MSTORE PUSH22 0x141C9BD91D58DD08191BD95CC81B9BDD08195E1A5CDD PUSH1 0x52 SHL PUSH1 0x44 DUP3 ADD MSTORE PUSH1 0x64 SWAP1 REVERT JUMPDEST ISZERO PUSH2 0x25AC JUMPI JUMP JUMPDEST PUSH1 0x40 MLOAD PUSH3 0x461BCD PUSH1 0xE5 SHL DUP2 MSTORE PUSH1 0x20 PUSH1 0x4 DUP3 ADD MSTORE PUSH1 0x29 PUSH1 0x24 DUP3 ADD MSTORE PUSH32 0x496E76616C69642070726F647563742073746174757320666F72207468697320 PUSH1 0x44 DUP3 ADD MSTORE PUSH9 0x37B832B930BA34B7B7 PUSH1 0xB9 SHL PUSH1 0x64 DUP3 ADD MSTORE PUSH1 0x84 SWAP1 REVERT JUMPDEST SWAP2 SWAP1 DUP3 ADD DUP1 SWAP3 GT PUSH2 0x47E JUMPI JUMP JUMPDEST PUSH1 0x1 PUSH1 0x1 PUSH1 0x40 SHL SUB DUP2 GT PUSH2 0x1FA8 JUMPI PUSH1 0x5 SHL PUSH1 0x20 ADD SWAP1 JUMP JUMPDEST DUP1 MLOAD DUP3 LT ISZERO PUSH2 0x21B0 JUMPI PUSH1 0x20 SWAP2 PUSH1 0x5 SHL ADD ADD SWAP1 JUMP INVALID 0xB2 0xAA 0xB5 PUSH5 0xFCD371FD7D 0x4A 0xDF MSTORE8 0x5D 0xE DUP6 0xA8 GASLIMIT 0xA6 LT EXTCODEHASH DUP13 0x4D PUSH15 0xC818E76E63297BF954A26469706673 PC 0x22 SLT KECCAK256 0xE7 0xBC 0xA9 0x2E 0xC5 PUSH13 0x7F66396578875A9B164027FEED 0xAC DUP2 0xD1 STATICCALL SLT 0xDA 0xCF 0xEE MLOAD 0xED DIV 0xC2 BALANCE PUSH5 0x736F6C6343 STOP ADDMOD SGT STOP CALLER "},"methodIdentifiers":{"allProductIds(uint256)":"dde1bbcf","distributorProducts(address,uint256)":"a1607988","farmerProducts(address,uint256)":"fece8772","getAllProductIds()":"663c01af","getContractStats()":"dfe6b5d6","getProduct(string)":"68111cce","getProductHistory(string)":"d4f50453","getProductsByDistributor(address)":"f6fa3b92","getProductsByFarmer(address)":"ec90a7b0","getProductsByRetailer(address)":"d6669147","markAsDelivered(string)":"133ce051","productHistory(string,uint256)":"01970b11","products(string)":"0186a423","registerProduct(string,string,uint256,uint256,string,string,string)":"c0d4c18c","retailerProducts(address,uint256)":"9ecd2118","totalProducts()":"9b9d326d","totalTransactions()":"b9a60038","updateAsDistributor(string,uint256,string)":"530ba397","updateAsRetailer(string,uint256,string)":"3e8f0bc2","verifyProduct(string)":"92efc453"}}}}}